:100000000C9428040C946F040C946F040C946F04EB
:100010000C946F040C946F040C946F040C946F0494
:100020000C946F040C946F040C94742B0C94462C59
:100030000C94B8210C946F040C946F040C946F040E
:100040000C946F040C946F040C946F040C946F0464
:100050000C9462110C9405220C946F040C946F04A0
:100060000C946F040C946F040C946F040C946F0444
:100070000C946F040C946F040C946F040C946F0434
:100080000C946F040C946F040C946F040C946F0424
:100090000C946F040C946F040C946F040C946F0414
:1000A0000C946F040C946F040C946F045A0F5D0F42
:1000B000650F6A0F6F0F740F790F7E0F830F880F14
:1000C0008D0F920F940F970F9A0F9D0FA00FA30FF4
:1000D000A50FAA0FCA10CC10D110D410D710DA1067
:1000E000DD1004170417361736178317A117C21827
:1000F000C218AC17411852185218B218C218C218B8
:10010000BB1862196219741974196B19741974196E
:1001100074196219621970197419741970191826F2
:100120000E261B2663266726672663266726672614
:100130003C266726462650266726672667266726BA
:10014000632667266726632667262926672667268D
:10015000602660266026602660266026602660266F
:1001600060266526672618260B26672667266726DB
:100170006726672667266726672667266726652619
:1001800067266726632667265E265E265E265E262F
:100190005E265E265E265E265E266526B32CDA2C5B
:1001A000D22DDA2CD22D262D492DD22DA02DAF2DDA
:1001B00029003A003C003E00400042004400460056
:1001C000480000003B003D003F0041004300450067
:1001D0004700000035001F002100230025002700F4
:1001E0002E0049004B001E002000220024002600A3
:1001F0002D002A004A0000002B001A0015001C00E8
:100200000C00130030004C004E00140008001700D2
:10021000180012002F0031004D000000E000160011
:1002200009000B000E003300000000000000040075
:1002300007000A000D000F00340028000000000035
:10024000E1001D000600050010003700E500000079
:10025000000000001B0019001100360038000000EB
:10026000520000000151E20000002C000000E600F6
:10027000650050004F00E300000000000000000097
:100280000151E400510000000100010001000100E3
:100290000100010001000100010000000100010057
:1002A000010001000100010001000000C25CC95C06
:1002B000C75C0100010001000100AE00AB00C35C9F
:1002C000C55CCB5C0100010001000100AC00000036
:1002D0003900CA5CC85C0100520001000100A8009E
:1002E000A900C45CC65CCC5C0100010001000100F7
:1002F000AA000000010001000100010051000100FE
:1003000000000000000001000100010050004F004B
:1003100001000100000000000100010001000100D7
:1003200001000100010000000000000001000100C8
:1003300001000100010000000100000001000A5C52
:100340000000010000000253010001000100135CE5
:10035000000000000000000001000100010000009A
:1003600029003A003C003E004000420044004600A4
:10037000480000003B003D003F00410043004500B5
:100380004700000035001F00210023002500270042
:100390002E0049004B001E002000220024002600F1
:1003A0002D002A004A0000002B001A0015001C0036
:1003B0000C00130030004C004E0014000800170021
:1003C000180012002F0031004D0000003900160007
:1003D00009000B000E0033000000000000000400C4
:1003E00007000A000D000F00340028000000000084
:1003F000E1001D000600050010003700E5000000C8
:10040000000000001B001900110036003800000039
:1004100052000000E000E20000002C00000001009B
:10042000650050004F00E3000000000000000000E5
:100430000151E4005100000032190A00047F3F1FFF
:10044000643214643214783C1E1E140A05222325DB
:100450002628292A2C2D2F3032333536383A3B3D89
:100460003E4042434547494A4C4E505153555759D7
:100470005A5C5E6062646668696B6D6F71737577F4
:10048000797B7D7F81838587898A8C8E90929496F3
:10049000989A9C9E9FA1A3A5A7A8AAACAEAFB1B302
:1004A000B4B6B8B9BBBCBEBFC1C2C3C5C6C7C9CA52
:1004B000CBCCCDCED0D1D2D2D3D4D5D6D7D7D8D914
:1004C000D9DADADBDBDBDCDCDCDCDCDDDDDDDDDC72
:1004D000DCDCDCDCDBDBDBDADAD9D9D8D7D7D6D584
:1004E000D4D3D2D2D1D0CECDCCCBCAC9C7C6C5C346
:1004F000C2C1BFBEBCBBB9B8B6B4B3B1AFAEACAA93
:10050000A8A7A5A3A19F9E9C9A98969492908E8C42
:100510008A89878583817F7D7B79777573716F6D1C
:100520006B6968666462605E5C5A595755535150F6
:100530004E4C4A4947454342403E3D3B3A383635AA
:100540003332302F2D2C2A292826252322FFAA7F5B
:100550005540000000000000000000000001010202
:1005600003040506080A0C0F1114181C2024292E58
:1005700033393F464C535B626A7179818A929AA201
:10058000AAB2B9C1C8CFD5DCE1E7EBF0F4F7FAFCC9
:10059000FDFEFFFEFDFCFAF7F4F0EBE7E1DCD5CF62
:1005A000C8C1B9B2AAA29A928A8179716A625B5370
:1005B0004C463F39332E2924201C1814110F0C0AE5
:1005C000080605040302010100000000000000000D
:1005D000000000010101010101010101020202020A
:1005E00002020202020303030303030303040404DD
:1005F00004040404050505050506060606060707A6
:1006000007070708080808090909090A0A0A0B0B5D
:100610000B0C0C0C0D0D0D0E0E0E0F0F0F101011FC
:100620001111121213131414151516161717181882
:1006300019191A1A1B1B1C1D1D1E1E1F20202122EA
:1006400022232424252626272829292A2B2C2D2D30
:100650002E2F30313232333435363738393A3B3C4D
:100660003D3E3F404142434445464748494A4C4D40
:100670004E4F50515354555658595A5B5D5E5F6109
:100680006264656668696B6C6D6F7072737577789C
:100690007A7B7D7E8082838587888A8C8E8F9193FA
:1006A0009596989A9C9EA0A2A3A5A7A9ABADAFB121
:1006B000B3B5B7BABCBEC0C2C4C6C9CBCDCFD1D406
:1006C000D6D8DBDDDFE2E4E7E9EBEEF0F3F5F8FAAC
:1006D000FDFF04033000000016034B0042004400FD
:1006E000380058002D004D004B0049004900000023
:1006F00010034B0042004400660061006E0073006E
:1007000000000403090409023B00020100A0FA09E9
:100710000400000103010100092111010001224030
:10072000000705810308000A090401000103000015
:100730000009211101000122BC00070582032000ED
:100740000A120110010000000803A10500010001C8
:1007500002030105010902A10185020901A10005A9
:1007600009190129051500250195057501810295D5
:1007700001750381010501093009311581257F9536
:10078000027508810609381581257F950175088154
:1007900006050C0A38021581257F9501750881062A
:1007A000C0C005010980A101850319012AB7001500
:1007B0000126B700950175108100C0050C0901A143
:1007C00001850419012AA002150126A002950175D0
:1007D000108100C005010906A1018505050719E082
:1007E00029E7150025019508750181020507190003
:1007F00029EF1500250195F0750181020508190101
:100800002905950575019102950175039101C005B2
:10081000010906A101050719E029E7150025019541
:1008200008750181029501750881010507190029E4
:10083000FF150026FF0095067508810005081901BF
:100840002905950575019102950175039101C00077
:1008500011241FBECFEFDAE0DEBFCDBF04B603FE2A
:1008600027C08091D9039091DA03A091DB03B09166
:10087000DC038730904BA740B04BD1F41092D903E2
:100880001092DA031092DB031092DC0314BE84B7DB
:10089000877F84BF0FB6F894A89580916000886127
:1008A00080936000109260000FBEE0E0F8E30995CD
:1008B00011E0A0E0B1E0E8EEFEE502C005900D9287
:1008C000A83DB107D9F723E0A8EDB1E001C01D9222
:1008D000A93DB207E1F70E94A3280C94722F0C9453
:1008E0000000229A6E9A0C94670781FF02C07698E6
:1008F00001C0769A82FF02C02A9801C02A9A0C94FD
:10090000DF0481E0089581E008950C948304089544
:100910000C9487041F93CF93DF9300D000D01F92D5
:10092000CDB7DEB749835A836B83309171028981D9
:100930009A81311114C0662359F0222349F00E9494
:100940009B1E182F682F89819A810E94441E03C024
:100950000E946F1E182F69817A81812F04C00E9426
:100960009B1E69817A810F900F900F900F900F90CE
:10097000DF91CF911F910C944A05FC01262F4081F5
:1009800051816281738184810C948A04CF93DF93B7
:10099000EC0160E00E94BD04BE01DF91CF910C9498
:1009A00088040E9451220E94D31F811102C00E941C
:1009B0007C200E94D1110C9471040C946507089559
:1009C00081E008950C94E004CF93C82F0E94750431
:1009D0008C2F0E94E204CF91089508950E9450192F
:1009E0000E94ED042FEF84E39CE021508040904072
:1009F000E1F700C000000C942B220F931F93CF93BC
:100A0000DF93EC0161E00E94BD048C01BE010E94F5
:100A100085048823A9F1BE01C8010E94BB10882368
:100A200079F1BE01C8010E948612882349F1BE01F6
:100A3000C8010E94C712882319F1BE01C8010E9493
:100A4000F2138823E9F0BE01C8010E94430F8823F6
:100A5000B9F08A81882369F001158CE5180731F017
:100A60000E3D1C4531F40E947C200AC00E94EE0419
:100A700007C0CE01DF91CF911F910F910C9481049B
:100A800080E0DF91CF911F910F91089580E090E079
:100A9000089508952CE6829FC0011124FC0129E0ED
:100AA000729FE00DF11D1124E60FF11DEE0FFF1FE7
:100AB000E055FE4F859194910895880F991FFC0190
:100AC000E85CFB4F859194910895CF93DF930E944A
:100AD0004A050E947D06EC018115904508F041C051
:100AE000C11580E4D80708F0D1C0C83ED10510F583
:100AF000C03ED10508F0FDC0C83AD10578F4C53A2A
:100B0000D10508F0A2C0C130D10509F4F2C008F443
:100B1000EEC0C430D10508F0ECC0E9C0CF3BD10530
:100B200008F49BC0C03CD10508F4E1C0CE01805C54
:100B300091099EC0C11590E2D90758F4C11521E072
:100B4000D20708F0D6C0C03FD10508F4D0C0D065A8
:100B5000D0C0C11580E3D80708F08EC0CE019F70C9
:100B600087C0C11595E5D90708F043C0C11524E534
:100B7000D20708F0A2C0C11582E5D80708F5C11553
:100B800091E5D90708F085C0CE0174E09695879568
:100B90007A95E1F783709C2F937021E030E002C0DA
:100BA000220F331F9A95E2F73C68382BCF70C69519
:100BB000C69580E2C89FE0011124C22BD32B99C0B7
:100BC0009E01237033278C2F86958695C115D345BA
:100BD00008F064C0C1E0D0E002C0CC0FDD1F2A9550
:100BE000E2F720E2829FC0011124C82BD92BDC68D8
:100BF00080C0C11529E5D207A0F4C11588E5D80742
:100C000008F060C0C11596E5D90708F070C08C2FB8
:100C10000E9411078F71C82FD0E0DC2FCC27D06243
:100C200068C0C1152AE5D20708F451C0CE0190561C
:100C30008115904208F05BC08D2F8F710E941107C3
:100C4000DD27D0628F71D82B54C0C55AD0E0C65A68
:100C5000DE4FC881D0E0D0644CC0C85AD0E0CC0F81
:100C6000DD1FC45DDE4F0990D881C02DD46441C022
:100C70000E945D05EC013DC0CE019927D3FF03C062
:100C8000EC01D86C36C0EC01D06C33C0DF70D06A98
:100C900030C0DC2FCC27C16FD06A2BC0C1E0D0E0C0
:100CA00002C0CC0FDD1F2A95E2F720E2829FC0012F
:100CB0001124C82BD92BDA681CC0DC2FCC27C46FB9
:100CC000D06A17C0DC2FCC27C06FD06A12C08C2F1F
:100CD0008F700E94110794E0D695C7959A95E1F719
:100CE000CF70D0E0DC2FCC27D069C82B02C0C0E089
:100CF000D0E0CE01DF91CF9108958238910569F15E
:100D0000B0F48133910509F46DC048F4893291053E
:100D100009F463C08A32910509F469C008958533E6
:100D2000910509F455C089339105B9F00895833EC2
:100D3000910569F138F4803E9105B1F0823E91054C
:100D400009F10895863E9105A9F1873E9105B9F113
:100D5000843E910509F064C023C02091CA0320FDA0
:100D60004FC021FD4DC008958091CA0380FD44C04D
:100D70008091CB0380FF44C08091CA0384FD42C0B0
:100D800083EE4DC08091CA0382FF38C0F5CF8091B9
:100D9000CA0382FD33C08091CB0380FD31C0ECCF0C
:100DA0008091CB0381FF32C08091CA0384FD2AC0A9
:100DB00087EE35C08091CA0383FF26C0F5CF8091AE
:100DC000CA0383FD21C08091CB0381FD1FC0ECCFFE
:100DD0008091CA0385FD1CC01DC08091CA0385FD9A
:100DE00019C016C08091CA0386FD16C017C0809135
:100DF000CA0386FD13C010C089E311C082EE0FC084
:100E000080EE0DC080E00BC086EE09C084EE07C006
:100E100089E205C085E303C08AE201C081E390E076
:100E200008959091CA0392FF0DC0282F2871283091
:100E300019F4877F846006C0282F2471243011F4B0
:100E40008B7F886093FF0DC0282F2871283119F4FB
:100E5000877E846106C0282F2471243111F48B7E93
:100E600088612091CB0320FF0DC0382F38713830B6
:100E700019F4877F816006C0382F3171313011F449
:100E80008E7F886021FF0DC0282F2871283119F42A
:100E9000877E816106C0282F2171213111F48E7E59
:100EA000886194FD877E0895E82FF0E0EE0FFF1F24
:100EB000E459FC4F808191810895089580EA8A95D4
:100EC000F1F7089508950C9462070C9463070C944D
:100ED0006207CF93DF93A6E6B1E042E751E061E01D
:100EE00070E08D91E82FE295EF70F0E021A18F7016
:100EF000EB0102C0CC0FDD1F8A95E2F7CE019C2FDB
:100F00009095922391A392A1892B82A34A175B0704
:100F100041F7ADE5B1E046E651E061E070E08D916A
:100F2000E82FE295EF70F0E021A18F70EB0102C095
:100F3000CC0FDD1F8A95E2F7CE019C2F909592236E
:100F400091A392A1892B82A34A175B0741F7E4E59D
:100F5000F3E0ACE6B3E08CE693E0119211921D92BF
:100F60001D928E179F07C9F78CE00E944808DF91F9
:100F7000CF910C94D1046F927F928F929F92AF92F7
:100F8000BF92CF92DF92EF92FF920F931F93CF9376
:100F9000DF9386E6C82E81E0D82E04E513E09CE6B8
:100FA000A92E93E0B92E712C88248394912CF601FC
:100FB00081916F01C82FC295CF70D0E099A18F7039
:100FC000740101C0EE0C8A95EAF7892F8E2989A356
:100FD0008AA16E2C609486218AA30E945E07EDE5AB
:100FE000F1E040E050E020E030E06191A62FA295D2
:100FF000AF70B0E090968C9190E06F7002C09595C4
:1010000087956A95E2F780FD08C0C401042E02C0EE
:10101000880F991F0A94E2F702C080E090E0282B25
:10102000392B4F5F5F4F49305105F9F689A168228E
:1010300069A28AA1E82AEAA2F80180819181281791
:10104000390721F03183208381E001C080E0782AD4
:101050000E5F1F4FA016B10609F0A9CF272D4CE057
:101060006CE673E084E593E00E9449080E94DD0489
:10107000872DDF91CF911F910F91FF90EF90DF901F
:10108000CF90BF90AF909F908F907F906F9008957A
:101090000895FF920F931F93CF93DF93F82E092F9C
:1010A000162FD72FC42F222349F081E08093DA0135
:1010B0000E94EA219093D9018093D8018091DA01AE
:1010C0008823D9F08091D8019091D9010E94F6210E
:1010D000069798F0EF2DF02FA12FBD2F80E090E024
:1010E0004C2F50E08417950734F4219131912D93C2
:1010F0003D930196F7CF1092DA01DF91CF911F91C6
:101100000F91FF900895EF92FF920F931F93CF934B
:10111000DF93F62E472FE82FF0E0711106C0EE5254
:10112000FA4F6491762F862F72C0272F30E0EE524F
:10113000FA4FE4910E2F10E056E0659FC001112494
:10114000CFEFD0E0BE010E94302E5BEA5603C00113
:10115000579F900D11248F0D911D8F0D911D982F6C
:10116000990F890F7E01E21AF30AE09ED001E19EF9
:10117000B00DF09EB00D1124489FA0011124452F01
:1011800055277E01E41AF50AE09EA001E19E500D6C
:10119000F09E500D11247E01E81AF108E29EC00174
:1011A000E39E900DF29E900D1124892F9927C81B64
:1011B000D90BC09FC001C19F900DD09F900D1124ED
:1011C0006230710591F048F461157105E1F061300C
:1011D0007105A9F48B2F752F19C06430710561F06A
:1011E00038F06630710579F00AC0892F7B2F0EC068
:1011F0008E2F7B2FE52F0AC08E2F792F02C0852FCF
:101200007E2FEB2F03C08B2F7E2FE92F6E2FDF91C8
:10121000CF911F910F91FF90EF9008950895CF9374
:10122000DF93762FE901682F842F0E94830879834A
:1012300068838A83DF91CF910895493C08F048EC98
:101240000C940F0980918403282F269530E02115F6
:10125000310519F48170826005C02B32310524F00C
:10126000817084658093840380918703893C18F0A2
:1012700088EC80938703089588E090E00C940B2F0E
:10128000CF92DF92EF92FF926B017C010E942209C4
:10129000B701A60188E090E0FF90EF90DF90CF903B
:1012A0000C94292FE4E8F3E083E0808311828FEF30
:1012B000828388EC8383148260817181828193812F
:1012C0000C9440098091840380FF02C086950895A4
:1012D00080E0089580918803833018F48F5F8093B5
:1012E00088036091840370918503809186039091B7
:1012F00087030C94400980918803882319F081505A
:1013000080938803609184037091850380918603A4
:10131000909187030C94400970E00C94E711609160
:1013200007018091840380FF0AC08091060123E0B9
:10133000829FC001112487579C4F0C948C09809187
:10134000080190910901891780F7E82FF0E09F01CB
:10135000220F331FE20FF31FE757FC4F1182108259
:1013600012828F5FF0CF9091840390FF16C090910E
:10137000080120910901921770F4E92FF0E0DF01D4
:10138000AA0FBB1FEA0FFB1FE757FC4F8183608347
:1013900042839F5FF0CF0C948F090895CF93DF9322
:1013A00000D01F92CDB7DEB79091840390FF0AC0A2
:1013B0009E012F5F3F4F0E941D094B8169818A81E9
:1013C0000E94B3090F900F900F90DF91CF91089575
:1013D000CF93DF93EC01EC81F0E0E35BFB4F4491B2
:1013E000E4E8F3E0628181810E94CE098C818F5F05
:1013F0008C83DF91CF910895CF93DF93EC01E4E8E4
:10140000F3E0438162818C810E94CE098C818F5FE1
:101410008C83DF91CF9108950F931F93CF93DF9328
:1014200000D01F92CDB7DEB78C018091DB01811116
:101430000AC09E012F5F3F4F48EC6FEF0E941D09CD
:101440008A818093DB01F8018481813051F028F09A
:10145000823061F44091DB010AC08091DB0140E001
:1014600007C06091DB0140E080E003C040E080E025
:1014700060E00E94B309F801848190E0019663E086
:1014800070E00E94442E84830F900F900F90DF91A4
:10149000CF911F910F910895AF92BF92CF92DF929B
:1014A000EF92FF920F931F93CF93DF9300D01F9281
:1014B000CDB7DEB7182FF62E042FE22E90918403BD
:1014C00090FF6DC0E92FE695AE2FB0E0AE58BE4F4D
:1014D0008C91809349029E7F923061F49E012F5F30
:1014E0003F4F812F0E941D094B8169818A810E9493
:1014F000B30943C0823019F4009187033EC086309F
:1015000019F41091850339C08930D9F38931A9F5CF
:10151000E9518E2F8170D82EE695F0E0E35BFA4F0B
:10152000A590B490C12CBB2460910A01C61618F591
:101530002C2D30E0A29EC001A39E900DB29E900D76
:10154000112470E00E94302E812FD11002C0860F2E
:1015500001C0861B90910801290F311DA901440F7C
:10156000551F240F351F27573C4F402F6F2D0E94CA
:101570001D09C394D9CF0E948F0910938503F0925F
:10158000860300938703EE2051F0609184037091ED
:10159000850380918603909187030E9440090F90F4
:1015A0000F900F90DF91CF911F910F91FF90EF90CF
:1015B000DF90CF90BF90AF900895E4E8F3E0918181
:1015C000282F4381628188E0890F0C944C0A81E0C6
:1015D0000C94DD0AE4E8F3E09181282F43816281D5
:1015E00088EF890F0C944C0A81E00C94EA0AE4E835
:1015F000F3E0628128E0620F08F46FEF282F438147
:1016000081810C944C0A81E00C94F70AE4E8F3E041
:10161000628128E0621B08F460E0282F4381818109
:101620000C944C0A81E00C94060BE4E8F3E043814F
:1016300028E0420F08F44FEF282F628181810C943B
:101640004C0A81E00C94150BE4E8F3E0438128E0B8
:10165000421B08F440E0282F628181810C944C0ADF
:1016600081E00C94240B20E00C944C0AFF920F9321
:101670001F93CF93DF93EC01F12C0FEF10E06091FB
:101680000A01F616F0F4809108012F2D30E0280FA2
:10169000311DC901880F991F280F391F27573C4F4B
:1016A00070E0C8010E94442E962F8C8140918703E0
:1016B00060918603F99E800D11240E941D09F39408
:1016C000DECF0E948F099A818C8190FF02C08F5FCC
:1016D00001C081508C83DF91CF911F910F91FF90BA
:1016E0000895AF92BF92CF92DF92EF92FF920F9345
:1016F0001F93CF93DF93FC01828180FF02C00FEF25
:1017000001C001E010E044E1A42E80910A01181705
:1017100008F043C080910801C12ED12CE601C80F0A
:10172000D11DCE01880F991FC80FD91FC757DC4F95
:10173000198218821A8234E0E32EF12CB12C8091A8
:10174000DD018B0D85312CF06A2D0E94222E892F10
:1017500005C087FF03C090910A01890F082E000C75
:10176000990BC816D90691F4809187038E9DA0012C
:101770008F9D500D112455954795559547959E0180
:1017800060918603809185030E941D09B00EF1E0EF
:10179000EF1AF108A1F61F5FB8CF0E948F09809160
:1017A000DD01013031F4811102C080910A018150C4
:1017B00007C090E0019660910A0170E00E94442EFB
:1017C0008093DD01DF91CF911F910F91FF90EF90FA
:1017D000DF90CF90BF90AF900895CF938091080194
:1017E00090910901891770F4E82FF0E09F01220F12
:1017F000331FE20FF31FE757FC4F11821082128252
:101800008F5FF0CFC0E060910A01C617C0F5EC2FE2
:10181000F0E070E0CF010E94442E20910801820F79
:101820002091DC01022E000C330B90E0E217F3074D
:10183000CCF020910501022E000C330B2E173F0730
:101840008CF09C01220F331F820F931F9C0127579E
:101850003C4F4091870360918603809185030E94ED
:101860001D090BC0FC01EE0FFF1F8E0F9F1FFC0117
:10187000E757FC4F118210821282CF5FC4CF0E94C3
:101880008F09209104018091DC01820F8093DC019B
:1018900090910501920F9093050119165CF4082EA2
:1018A000000C990B40910A0150E0415051098417F6
:1018B00095071CF0219520930401CF9108950F9373
:1018C0001F93CF93DF938C01FC0184819581019656
:1018D0008170992795838483C0E0D5E580910A01C2
:1018E000C81700F5809108012C2F30E0280F311D1A
:1018F000C901880F991F280F391F27573C4F4C2FBC
:101900004695F80184819581840F911D81704091E5
:101910008703609186038D9F802D11240E941D09ED
:10192000CF5FDCCFDF91CF911F910F910C948F0986
:101930000F931F93CF93DF93EC0100E010E08091B1
:101940000A01282F30E00217130724F590910801AF
:101950009801290F311DA901440F551F240F351F70
:1019600027573C4F869590E04C81081719071CF4C7
:10197000442331F002C0411103C04091870301C0EC
:1019800040E060918603809185030E941D090F5FEE
:101990001F4FD5CF0E948F098C8190E001968170F6
:1019A00099278C83DF91CF911F910F9108958F928A
:1019B0009F92AF92BF92CF92DF92EF92FF920F93DE
:1019C0001F93CF93DF93FC01B280948081E08483E6
:1019D00000E015E05BE4A52E88248394EE24EA94CD
:1019E000F12C7BE4C72ED12C80910A01081708F056
:1019F0008FC0C02FD0E01C9FF0011D9FF00D11245F
:101A0000E252FE4F911003C01382128267C02381FD
:101A1000222389F1215023833481332319F09A2D15
:101A2000921B01C0922F809187031C9FF0011D9F84
:101A3000F00D1124E252FE4F899FC0011124B6011E
:101A40000E94302E6283211104C0332311F01482CE
:101A5000A38222E02B1508F441C01C9FF0011D9FBA
:101A6000F00D1124E252FE4F809185038083809116
:101A70008603818333C00E94E62E8230914074F544
:101A800082E08B1530F40E94E62EB7010E94442EAE
:101A900002C0809185031C9FF0011D9FF00D112451
:101AA000E252FE4F808322E02B1558F40E94E62E6E
:101AB000209186032695622F70E00E94442E820FAB
:101AC00002C0809186031C9FF0011D9FF00D112420
:101AD000E252FE4F81831282A382848280910801A8
:101AE0009E01280F311DC901880F991F280F391F2A
:101AF00027573C4F1C9FF0011D9FF00D1124E2520F
:101B0000FE4F4281618180810E941D090F5F6CCF71
:101B1000DF91CF911F910F91FF90EF90DF90CF90C9
:101B2000BF90AF909F908F900C948F09E4E8F3E002
:101B300080818E7F808360817181828193810E9408
:101B4000400910924A022FEF80E792E02150804036
:101B50009040E1F700C000000C948F09E4E8F3E046
:101B600080818E7F808310924A022FEF80E792E07F
:101B7000215080409040E1F700C000000C948F0994
:101B800060918403669570E04BE050E08BE091E05B
:101B90000E94F62E892B19F481E080934A020E945C
:101BA000EA21909343028093420208959091840326
:101BB00090FF35C09170811102C0926006C08B32D7
:101BC00010F0946502C0880F982B909384036623CD
:101BD00051F0609184037091850380918603909108
:101BE00087030E94400960918403669570E04BE092
:101BF00050E08BE091E00E94F62E892B19F01092B4
:101C00004A0202C00E94C00D81E0809345024091CB
:101C1000870360918603809185030C94330B0895AC
:101C2000682F90918403969581E0890F8B3208F09C
:101C300081E00C94D60D81E00C94100E682F9091E9
:101C4000840396958FEF890F09F48AE20C94D60DE0
:101C500081E00C941E0E61E00C94D60DE4E8F3E0F4
:101C600080818160808386950C942B0E8091840303
:101C700080FD0C94960D0C942E0E60E00C94D60D05
:101C80008091480281112EC00E94D31F811104C08F
:101C90000E947C200E9452090E943C0960938403A8
:101CA0007093850380938603909387036E7F61F41E
:101CB0000E9452090E943C0960938403709385033B
:101CC00080938603909387030E94220910924A0210
:101CD0008091840380FF03C086950E943D0E81E0C1
:101CE000809348020895E4E8F3E080818160808376
:101CF00086950C943D0E10924A0208950F931F93FF
:101D0000CF93DF9380914A02882309F49CC080918D
:101D10004902E0918403E695E81BE0934402823097
:101D200049F4F0E0E75BFB4FE491CE2FD0E008EE02
:101D300019E059C0863049F4F0E0EA5BFB4FE491CA
:101D4000CE2FD0E00CEF19E04EC0893051F4E6956B
:101D5000F0E0ED5BFB4FE491CE2FD0E006E31BE01B
:101D600042C08F3051F4E695F0E0E05CFB4FE49127
:101D7000CE2FD0E001E71BE036C0853149F4F0E01A
:101D8000E35CFB4FE491CE2FD0E00DEE1BE02BC0C7
:101D90008831D9F0833239F4EBE3F4E0C591D49182
:101DA0000CE01AE020C08432A9F08532C1F48E2FF5
:101DB00063E00E94162EE92FF0E0E85CFB4FE4910F
:101DC000CE2FD0E007ED1CE00EC0C8EED3E00FE54B
:101DD0001CE009C0C4EFD1E008E91CE004C0C0ED7C
:101DE000D7E00EE019E080914502882389F0109237
:101DF00045020E94EA219E0120953095820F931F93
:101E0000909343028093420210924702109246023E
:101E100080914202909143020E94F6218C179D0707
:101E200090F0E0914202F0914302CE0FDF1FD09379
:101E30004302C093420282E492E0F801DF91CF9125
:101E40001F910F910994DF91CF911F910F910895E8
:101E5000882311F0FA0101C0FB010994CF93DF93AD
:101E6000C82FD62F0E9462098C1740F00E94620989
:101E70008D1720F4DF91CF910C941B0E8C2FDF91E6
:101E8000CF910C942B0E0F931F93CF93FB01C28124
:101E9000CC2309F463C08C010E941C1F8272F801DC
:101EA000E25CFC45E431F10508F059C0EA5AFF4F05
:101EB0000C947A2E0E94360E06C048E25EE06BE17A
:101EC0007EE00E94280FC0E04AC04BE15EE068E27D
:101ED0007EE0F7CF44EF5AE067EE7AE0F2CF47EECC
:101EE0005AE064EF7AE0EDCF42E15BE063E07BE053
:101EF000E8CF43E05BE062E17BE0E3CF40E35BE01F
:101F000061E27BE0DECF41E25BE060E37BE0D9CFE2
:101F10004BE759E06AE679E0D4CF4AE659E06BE74F
:101F200079E0CFCF81E017C065E082E010C068E0C3
:101F300086E00DC06EE089E00AC064E18FE007C072
:101F400067E185E104C088E106C062E289E10E94A0
:101F50002E0FB9CF83E20E942B0EB5CFC1E08C2F9C
:101F6000CF911F910F9108958091C5038695869515
:101F7000869508958091C50381FD07C08260809396
:101F8000C5030E9408200C944D1108958091C5034B
:101F900081FF07C08D7F8093C5030E9408200C94A9
:101FA000591108958091C50381FD0C94C60F0C94BE
:101FB000BA0F8091C50386958170089580911601AE
:101FC00008950E94D31F811102C00E947C200E94AC
:101FD00004208093C503282F26952695269530E06A
:101FE0002430310524F0877088618093C503809187
:101FF000C50380FF04C086958695869501C080E064
:102000000C9423112091C503822F86958695869581
:10201000482F50E04330510554F48F5F982F990FAB
:10202000990F990F822F8770892B8093C503809118
:10203000C50381608093C5030E9408208091C50379
:102040008695869586950C9423118091C503982FCB
:10205000969596959695A1F0915E990F990F990F87
:102060008770892B8093C503887F91E009F490E005
:102070008091C50390FB80F98093C5030E940820DE
:102080008091C5038695869586950C942311809141
:10209000C50380FD13C081608093C503813019F4AE
:1020A00089E08093C5038091C5030E940820809138
:1020B000C5038695869586950C9423110895809185
:1020C000C50380FF08C08E7F8093C5030E9408204F
:1020D00080E00C94231108958091C50380FD0C9439
:1020E0005F100C9447109091C503892F86958695B3
:1020F00086958F5F8F719770843038F4880F880FC2
:10210000880F892B8093C50302C09093C5038091EB
:10211000C503887F91E009F490E08091C50390FBAE
:1021200080F98093C5030E9408208091C50386959D
:10213000869586950C942311843008F083E0909165
:10214000C5039770282F220F220F220F922B9093F6
:10215000C503987F21E009F420E09091C50320FB9E
:1021600090F99093C5030C9423110E949C108091C8
:10217000C5030C940820FC01DB0112968C91882386
:10218000F9F0EB5BFC45E730F105D8F4E659FF4F79
:102190000C947A2E83E001C080E00E94B51080E0AC
:1021A00008950E942510FBCF0E940210F8CF0E94D4
:1021B0006C10F5CF0E947310F2CF0E94D20FEFCFB8
:1021C00081E00895279A2F9808952F980895CF9227
:1021D000DF92EF92FF928C3724E1920728F469E0B6
:1021E00070E00E94302E29C0A0E0B0E08A50974DE8
:1021F000AF4FBF4F6627782F892F9A2F25EF38E2F0
:1022000041E050E00E94582E69017A01CA01B901EB
:102210000E94062E9B01AC01C701B6010E94062E4A
:10222000BB27A92F982F872F009721E0A207B10580
:1022300011F0BC0102C06FEF7FEFCB01FF90EF9078
:10224000DF90CF900895CF93C82F843050F4811140
:1022500009C080918000877F809380000E94E510F4
:1022600006C0C3E0809180008860809380002C2F9E
:1022700030E0AFEFBFEF0E94802E23E030E040E07F
:1022800050E00E94582EC9010E94E71090938D00E3
:1022900080938C00CF910895089510924C02109273
:1022A0004B0210924D02EFE6F0E080818160808366
:1022B0000895EFE6F0E080818E7F80830E94B40F66
:1022C0000C9423111F920F920FB60F9211242F938B
:1022D0003F934F935F936F937F938F939F93AF93AE
:1022E000BF93CF93EF93FF930E94DE0F40914B0279
:1022F00050914C024F5F5F4F94EF899F90011124E2
:10230000CA01B9010E94302E90934C0280934B0277
:10231000B901660F672F661F770B71950E94302EEB
:102320006F7780914D02823019F4603451F404C00B
:10233000813039F46F3729F480916F008E7F80935C
:102340006F00E62FF0E0EE5AFA4FC4910E94B40FEE
:10235000282F41E051E0C49FC001C59F900D11247A
:1023600063E070E00E94302E269FC001279F900DF1
:1023700011240E94E71090938D0080938C00FF91B0
:10238000EF91CF91BF91AF919F918F917F916F917D
:102390005F914F913F912F910F900FBE0F901F9023
:1023A00018950E94E2108AE08093800089E1809372
:1023B00081008FEF9FEF90938700809386000E94AB
:1023C000E10F0E94D90F81110C944D110895239AA9
:1023D00025B1277F35B138604FB7F894FC01CB01A8
:1023E000880F991F680F791F6E0F7F1FE617F70779
:1023F00089F0819198E035B9000000C087FF25B9C8
:10240000880F000000C000C000C025B900C09A9528
:1024100091F7ECCF4FBF8FE594E00197F1F700C043
:10242000000008950F931F93CF93DF93C62FD42FEF
:10243000122FFC0182818823C9F0609350020E9410
:10244000EA2190934F0280934E0280E28C0F8830F5
:1024500008F057C0C77081E001C0880FCA95EAF73D
:10246000DF91CF911F910F910C94C0168091500273
:10247000681330C080914E0290914F020E94F62165
:10248000883C910538F500E20D0FCD17B9F080E2D8
:102490008C0F883040F4C77081E001C0880FCA9566
:1024A000EAF70E94C716083028F581E09D2F977043
:1024B00001C0880F9A95EAF70E94C016812F0E94EA
:1024C000AD160830F0F4D77081E001C0880FDA95BE
:1024D000EAF70AC080E28C0F883098F4C77081E078
:1024E00001C0880FCA95EAF7DF91CF911F910F9134
:1024F0000C94C716812FDF91CF911F910F910C94EF
:10250000AD16DF91CF911F910F9108959C01CB01E2
:10251000233F4CE53407F9F078F4283DFCE53F070C
:10252000B9F0293D4CE5340711F1273D3C4531F523
:1025300026E241EE61EE1EC0253FFCE53F0799F023
:1025400070F0263F3C45D1F427E245EE66EE12C01E
:1025500027E245EE0EC026E241EE60EE0BC027E218
:1025600045EE64EE07C026E241EE62EE03C028E2CB
:1025700041E065EE0E94121280E00895FC01828124
:10258000882319F010925002089581E00895CF93A6
:10259000DF93EC01FB018281882309F41FC1C23063
:1025A000FCE5DF0708F41BC1C6319CE5D90738F00C
:1025B0009E012A5F3C452930310508F010C10E9478
:1025C000E61F9093CB038093CA03C031ECE5DE078E
:1025D00009F4C3C008F041C0C8308CE5D80709F43D
:1025E0009AC0F0F4C430ECE5DE0709F487C068F463
:1025F000C2308CE5D80709F477C0C330DC4509F058
:10260000E3C08091CA03826076C0C630ECE5DE0785
:1026100009F46EC008F07BC08091CA0388606BC06B
:10262000CC308CE5D80709F485C068F4CA30ECE5F5
:10263000DE0709F474C008F079C00E945019809137
:10264000CA03806858C0CE308CE5D80709F476C03C
:1026500008F07FC08091CA038BC0CB3FECE5DE075A
:1026600009F44FC018F5C3318CE5D80709F47DC0D3
:1026700078F4C131ECE5DE0709F473C0C231DC4502
:1026800009F0A2C00E9450198091CA038F7733C00D
:10269000C5318CE5D80709F472C008F486C0CA3F7A
:1026A000DC4509F091C08091CB033EC0CF3FFCE5F3
:1026B000DF0709F45FC058F4CD3F9CE5D90709F462
:1026C00044C008F43FC08091CB0382602DC0C1306C
:1026D000FDE5DF0709F475C008F45DC0C230DD45D3
:1026E00009F072C080E06EC08091CA03816003C0AF
:1026F0008091CA0380618093CA0366C08091CA0337
:1027000011C08091CB0382608093CB035DC0809128
:10271000CA038062F0CF8091CA038064ECCF8091BD
:10272000CA0388608460E7CF8160EECF8091CA03DE
:102730008E7FE1CF8091CA038D7FDDCF8091CA0368
:10274000877FD9CF8091CB0318C08091CB038D7F39
:10275000DBCF8091CA038F7ECECF8091CA038F7D5D
:10276000CACF8091CA038F7BC6CF8091CA03877F6F
:102770008B7FC1CF8091CB038D7F8E7FC5CF809122
:10278000CA0382FB222720F991E0922790FB82F96D
:1027900090FB83F9B0CF8091CB03982F90959170E7
:1027A0008E7F892B90FB81F9AFCF0E9450198091C9
:1027B000CA0387FB222720F991E0922790FB87F933
:1027C0009ACF81E00E947E208091CA039091CB0332
:1027D0000E94F71F0E94501980E001C081E0DF9144
:1027E000CF910895CF93DF9386319C4541F5EB015E
:1027F0000E941C1F982F8A81209117013091180187
:10280000882379F09A7A81E009F480E0809351027C
:10281000911102C069E201C065E3C9010E9419215A
:102820000AC080915102811102C069E201C065E3D2
:10283000C9010E9424210E946A1F80E001C081E03A
:10284000DF91CF9108959093570280935602089597
:10285000E0915602F0915702309721F00190F081FB
:10286000E02D099480E00895E0915602F09157021E
:10287000309799F020912B01222359F02091CA031F
:1028800027FF07C0DC012C9111962C93119725E0AE
:102890002C930280F381E02D09940895E091560273
:1028A000F0915702309739F022E0DC012C9304803C
:1028B000F581E02D0994089520915402309155023C
:1028C0002817390771F09093550280935402E091D4
:1028D0005602F0915702309721F00680F781E02DE3
:1028E0000994089520915202309153022817390714
:1028F00071F09093530280935202E0915602F0914E
:102900005702309721F00084F185E02D0994089555
:1029100085B7806885BF85B7806885BF08950895AD
:102920000C948F140C9490140C948F140C948F149A
:102930000E9488140E9494140C94921481E00895CB
:102940000C949E140E94E1210E9469070E94652256
:102950000E94E10F0E94400E0C9496147F928F9279
:102960009F92AF92BF92CF92DF92EF92FF920F931E
:102970001F93CF93DF93CDB7DEB72A970FB6F894A6
:10298000DEBF0FBECDBF0E94BB070E94A014811105
:1029900011C08FEF89838A831B820E94EA218160A4
:1029A000782F9D838C8349815A816B818D810E9410
:1029B00062154FC049E5A42E42E0B42E00E010E0BD
:1029C000702E802F0E9454076C01F5018190919028
:1029D0005F01882699268114910431F40F5F1F4FFF
:1029E0000C30110569F7D5CF80911D0381FD0E9440
:1029F0005D0780E0EE24E394F12C94012E213F2129
:102A0000232B09F18E837F82CE20DF2081E0CD2829
:102A100009F480E088870E94EA218160782F9A87F4
:102A200089874E815F8168858A850E946215000FC3
:102A3000111FF801E75AFD4F80819181E826F926A0
:102A4000F182E08206C08F5FEE0CFF1C8930A9F690
:102A5000C5CF0E947E0E0E944C110E94F7230E9457
:102A60002814909158028917C9F00E942814809365
:102A700058022A960FB6F894DEBF0FBECDBFDF9185
:102A8000CF911F910F91FF90EF90DF90CF90BF906B
:102A9000AF909F908F907F900C94E4042A960FB68D
:102AA000F894DEBF0FBECDBFDF91CF911F910F9184
:102AB000FF90EF90DF90CF90BF90AF909F908F905E
:102AC0007F900895CF93DF93CDB7DEB72B970FB6E6
:102AD000F894DEBF0FBECDBF4F83588769877A87D2
:102AE0008B87DE01119686E0FD0111928A95E9F748
:102AF00085E0FE01379601900D928A95E1F74981B4
:102B00005A816B817C818D819E810E94091C2B964C
:102B10000FB6F894DEBF0FBECDBFDF91CF91089501
:102B2000FC01808191810E94DD1E0895CF9388234E
:102B300009F4A9C0C82F8238C1F40E94281481FD6D
:102B4000A2C069E380911701909118010E94192198
:102B50000E946A1F2FEF81EE94E021508040904048
:102B6000E1F700C0000069E319C0833801F50E9455
:102B7000281480FD88C063E58091170190911801A9
:102B80000E9419210E946A1F2FEF81EE94E02150CC
:102B900080409040E1F700C0000063E5809117019C
:102BA000909118010E942421CF910C946A1F8438BF
:102BB000C1F40E94281482FD66C067E48091170169
:102BC000909118010E9419210E946A1F2FEF81EE37
:102BD00094E0215080409040E1F700C0000067E49D
:102BE000DDCF8CEF8C0F813AF8F48C2F0E94782681
:102BF000811149C06C2F80911701909118010E949A
:102C00009920882349F06C2F809117019091180129
:102C10000E9424210E946A1F6C2F809117019091BD
:102C200018010E941921C0CF80E28C0F883048F42F
:102C3000C77081E001C0880FCA95EAF70E941F1F84
:102C4000B3CFEBE5EC0FE33040F4F0E0E553FE4F9B
:102C5000808190E0CF910C945C14E8E5EC0FE731B3
:102C600050F4F0E0EE0FFF1FE356FE4F808191819C
:102C7000CF910C947214C03F30F08C2F0E94FF2231
:102C8000CF910C94EC23CF910895882309F464C06C
:102C9000823879F40E94281481FF5EC069E3809134
:102CA0001701909118010E9419210E946A1F69E37F
:102CB00010C08338B1F40E94281480FF4DC063E532
:102CC00080911701909118010E9419210E946A1F9A
:102CD00063E580911701909118010E9424210C94C2
:102CE0006A1F843879F40E94281482FF35C067E493
:102CF00080911701909118010E9419210E946A1F6A
:102D000067E4E7CF9CEF980F913A10F4682FE1CF7A
:102D100090E2980F983050F4877091E001C0990FBD
:102D20008A95EAF7892F0E94251FD9CF9BE5980F36
:102D3000933020F480E090E00C945C1498E5980FB8
:102D4000973120F480E090E00C947214803F20F0E2
:102D50000E9467230C94EC230895CF93C82F0E9400
:102D60009615C93349F42FEF87EE93E02150804048
:102D70009040E1F700C000008C2FCF910C944516D5
:102D8000882321F00E941F1F0C946A1F0895882336
:102D900021F00E94251F0C946A1F0895CF92DF92A4
:102DA000EF92FF920F931F93CF93DF937C01062F37
:102DB000C72FFC01158112951F70D281D1110E947D
:102DC0003C1F0E94151F882399F0DD2389F08C2F6A
:102DD000807F803421F080E2800F883048F082E0EC
:102DE0000E94B41F0E94151F91E0D82ED92601C061
:102DF000D12CCC2EC2948FE0C8228C2D90E0FC0107
:102E0000EF58FF4F0C947A2E8C2F807FCF70882341
:102E100011F0C295C07FDD2399F0CC2309F48DC158
:102E200080E2800F883010F0011104C08C2F0E94C6
:102E30001F1F03C08C2F0E942F1F0E946A1F7DC17D
:102E4000802F0E944516CC2309F49CC180E2800F9C
:102E5000883010F0011104C08C2F0E94251F03C080
:102E60008C2F0E94351F0E946A1F8CC18C2F807F7F
:102E7000CF70803211F0C295C07F002319F001306D
:102E8000C9F022C0DD2371F0112341F0113031F47B
:102E90000E944F1F8C2B0E94571F74C10E944F1F0E
:102EA0008C2B1DC0112319F0113009F46BC10E9445
:102EB000601F25C0DD2321F0163008F063C10EC06D
:102EC000153008F05FC11BC0DD2361F0112331F024
:102ED000F701858180FF31C18F7085838C2F0E941F
:102EE000C01650C1112359F0093309F037C1FFEF63
:102EF00027EE83E0F15020408040E1F72DC18C2F78
:102F00000E94C7163FC18C2F86958695837019F055
:102F1000813061F037C1DD2321F0802F9C2F937029
:102F200002C080E090E00E945C1434C1DD2321F0F7
:102F3000802F9C2F937002C080E090E00E9472145A
:102F400029C1802FDD2319F00E94FF2202C00E94B8
:102F500067230E94EC231EC18C2F837009F045C0AB
:102F6000D11114C1402F429546954770440F440F2C
:102F7000602F6F70862F90E0A0E0B0E0042E04C0B8
:102F8000880F991FAA1FBB1F0A94D2F704FF10C015
:102F90000FE010E020E030E004C0000F111F221FFE
:102FA000331F4A95D2F7009510952095309503C0B0
:102FB00000E010E09801C695C695C370BC01CD0134
:102FC000602B712B822B932BC23049F058F4C13007
:102FD00019F00E945A1DDAC00E94481DD7C00E94F5
:102FE0006C1DD4C00E94461DD1C0DD2319F08C2F6A
:102FF000817001C08695882309F4C8C0402F42958E
:1030000046954770440F440F602F6F70862F90E0F5
:10301000A0E0B0E0042E04C0880F991FAA1FBB1FB8
:103020000A94D2F704FF10C00FE010E020E030E077
:1030300004C0000F111F221F331F4A95D2F70095BD
:1030400010952095309503C000E010E09801C695DA
:10305000C695C370BC01CD01602B712B822B932BC5
:10306000C23049F058F4C13019F00E941F1E8EC0C2
:103070000E940D1E8BC00E94311E88C00E94801DC0
:1030800085C0CF70DD2339F08C2F0E94A61D802FC4
:103090000E94C0167BC0802F0E94C7168C2F0E94F2
:1030A000C71D74C0023F01F128F4003F41F0013F09
:1030B000A1F03FC0033FF9F0043F39F13AC0DD23EE
:1030C00041F0153008F05EC08C2F8F710E94EC1D0E
:1030D00059C0163008F056C0F7CFDD2339F08C2FD9
:1030E0008F710E94A61D4EC0DD23C9F38C2F8F71F6
:1030F0000E94C71D47C0DD2329F08C2F8F710E94CD
:10310000911D40C00E948C1D3DC0DD2349F0CF7150
:103110008C2F0E94A61D63E08C2F0E949F1F32C03F
:1031200081E00E94B41F123068F182E00E94B41F57
:1031300029C0DD2331F0112391F2802F0E949615D2
:1031400021C0112399F2093349F49FEFE7EEF3E030
:103150009150E040F040E1F700C00000802F0E9455
:10316000451610C04C2F4F70602FC7010E944605B6
:103170000E94B71C0FC04C2F4F70602FC7010E94D8
:10318000490508C088EF8C0D843020F40E94281473
:103190000E94E404DD20C9F00E94111F80FD15C0CB
:1031A000F70112820E940B1F0E94A61DC7010E94F8
:1031B00006190E940B1FDF91CF911F910F91FF9075
:1031C000EF90DF90CF900C94C71DDF91CF911F91AE
:1031D0000F91FF90EF90DF90CF9008950F931F9382
:1031E000CF93DF93EC01688179818A810E94E81E88
:1031F0008C010E94431E0E94341DB801CE010E9422
:10320000CE16DF91CF911F910F910895CF93DF9349
:10321000EC01988189812B813C81232B31F08F3FF8
:1032200031F481E09F3F19F403C081E001C080E0E8
:1032300080FD19C0CE010E94FD0481110CC00E94C6
:10324000151F882381F08A81882369F082E0DF914D
:10325000CF910C94B41FCE010E94EE18CE01DF91E5
:10326000CF910C94C604DF91CF9108950E943C1F2A
:103270000E944C1F0E946A1F0E9416250E94EC2388
:1032800080E090E00E945C1480E090E00C94721466
:1032900080911701909118010E942F210C943619EA
:1032A0000E942C1F0C944819E92FE295EF704E2FC5
:1032B00050E0FA013297EE30F105B0F4EF57FF4FCE
:1032C0000C947A2E803F91F018F4883E68F40EC07A
:1032D000843F51F40BC0883E48F0813F29F406C07A
:1032E00093FB882780F9089580E0089581E0089590
:1032F0000E94DD1E0E9454190895CF93DF9300D0E1
:1033000000D01F92CDB7DEB70F900F900F900F90A7
:103310000F90DF91CF910895CF93DF9300D000D02D
:1033200000D0CDB7DEB726960FB6F894DEBF0FBE3D
:10333000CDBFDF91CF9108951F93CF93DF93C091BD
:10334000720216E080917302C81799F0D0E01C9FBA
:10335000F0011D9FF00D1124EC58FD4F408151816B
:1033600062817381848195810E948C192196C77036
:10337000E9CFDF91CF911F9108954091A402509120
:10338000A5026091A6027091A7028091A802909177
:10339000A9020C948C190F931F93CF93DF93809104
:1033A000A90282958F7009F05DC08091A6028823E2
:1033B00009F458C080917202109173026091A402C6
:1033C0007091A502C091A702D091A80291E06F3F31
:1033D00009F090E0292F06E0811709F443C02097F7
:1033E00021F07F3F21F030E003C031E001C0322FF7
:1033F00090E030FD34C0089FF001099FF00D1124CA
:10340000DF01AC58BD4F11963C911197371327C07F
:103410003C91361324C012963C91129731111FC073
:1034200013964D915C9114974C1B5D0B483C5105D4
:10343000B0F48091A9028F7080618093A902E7584F
:10344000FD4F80818F708061808384EA92E00E94CA
:103450000619DF91CF911F910F910C949C19019641
:103460008770BACFDF91CF911F910F9108959F92EE
:10347000AF92BF92CF92DF92EF92FF920F931F9382
:10348000CF93DF93CDB7DEB761970FB6F894DEBF69
:103490000FBECDBF8C0185E0F801DE011D960190C5
:1034A0000D928A95E1F7F80140815181E280909177
:1034B000A4026091A5022091A7023091A8022115D3
:1034C000310531F06F3F31F481E09F3F19F403C0C3
:1034D00081E001C080E0F82FF1709F2E80FD46C191
:1034E000F801A380B48084EAC82E82E0D82EF09040
:1034F000A602F501E21BF30BFF2009F4DFC0809167
:10350000A902E83CF10508F09BC0282F207F09F0B4
:1035100052C0561313C0491311C0FE2CE1100EC047
:103520008F7080618093A9020E94BD19C6010E941C
:1035300006198091A902F801858358C1AB2831F0A2
:103540005F3F31F481E04F3F19F403C081E001C0D7
:1035500080E080FD03C081E08E2502C080E090E025
:10356000F82FF170FF2E80FF1CC080917202209115
:10357000730236E0821709F417C190E0389FF0011A
:10358000399FF00D1124EC58FD4F6181561306C090
:103590006081461303C06281E61203C00196877002
:1035A000E9CFFE2CEE2009F421C18091A9028160AF
:1035B0008093A9025AC0561306C0491304C0E110F3
:1035C00002C0F8019FC04D875E878D859E850E9451
:1035D0007819882379F1EE2069F12091A902822FD0
:1035E00082958F7090E0029774F08091A402909180
:1035F000A50298878F831986BB86AA862C87CE0161
:1036000007960E94061986E0F801A4EAB2E001904C
:103610000D928A95E1F70E94CB190E94BD190DC049
:10362000561729F14D875E878D859E850E947819F2
:1036300081112CC0C8010E940619FF24F394D6C042
:10364000282F207F69F77A2DB98AA88A6E2D89895B
:103650000E947D1984EA92E00E94061986E0F60134
:1036600011928A95E9F70E94BD19F12CBFC0491348
:10367000D9CFE110D7CFF8018583C8010E94061980
:1036800086E0F60111928A95E9F7B0C0EE2091F23A
:103690002091A902822F82958F7090E002970CF4FE
:1036A000B2CF8091A4029091A5029A8389831B8254
:1036B000BD82AC822E83CE010196A3CFE83CF105FA
:1036C00008F047C0FE2CEE2009F4B4CF561330C0EA
:1036D00049132EC02091A90220FD21C0822F82957E
:1036E0008F70482F50E041155105C9F0F80125832E
:1036F0004F30510541F08F5F982F9295907F822F28
:103700008F70892B8583C8010E94061986E0F80115
:10371000A4EAB2E001900D928A95E1F742C086E0FA
:10372000F801A4EAB2E001900D928A95E1F75EC03B
:103730004D875E878D859E850E947819811163CFA4
:103740008091A90281608093A902C8010E94061994
:103750004DC07A2DB98AA88A6E2D89890E947D195B
:1037600086E0F60111928A95E9F71BC0EE2009F474
:1037700061CF4D875E878D859E850E947819F82ED2
:10378000882309F457CF86E0F801A4EAB2E001905B
:103790000D928A95E1F784EA92E00E9490150E94CA
:1037A000CB190E94BD1922C04D875E878D859E85ED
:1037B0000E94DD1E292F22952F70223028F49F7041
:1037C00039F0811105C00BC0243028F49F7049F4F2
:1037D000805E883020F0C8010E9406199F2CF92CC9
:1037E00005C0F8019581907F99F7F9CF8F2D6196EB
:1037F0000FB6F894DEBF0FBECDBFDF91CF911F9102
:103800000F91FF90EF90DF90CF90BF90AF909F907F
:1038100008951F93CF93DF93CDB7DEB72C970FB6E4
:10382000F894DEBF0FBECDBF4F83588769877A8774
:103830008B879C87CE0107960E94371A8823D1F088
:103840009F8188852A853B85232B31F08F3F31F47A
:1038500081E09F3F19F403C081E001C080E080FD5A
:1038600047C04F81588569857A858B859C850E94E4
:103870008C193EC086E0FE013796DE01119601905C
:103880000D928A95E1F7FF81E8856A857B85611550
:10389000710531F0EF3F31F481E0FF3F19F403C0CF
:1038A00081E001C080E080FD23C02091730230E000
:1038B000C9010196877099274091720250E08417E0
:1038C0009507F1F1F983EA837D836C8396E0929FFB
:1038D000D001939FB00D1124AC58BD4FFE0131961D
:1038E00001900D929A95E1F7809373020E949C19C2
:1038F00016E08091720290917302891771F1189FFE
:10390000C00111248C589D4F0E94371A882329F139
:10391000E09172021E9FF0011124EC58FD4F40818E
:10392000518162817381848195810E948C1980917B
:10393000720290E001968770992780937202D9CF26
:103940000E9450191092730210927202E4EAF2E09F
:1039500086E0DF011D928A95E9F72C960FB6F89460
:10396000DEBF0FBECDBFDF91CF911F910895EF92C3
:10397000FF920F931F93CF93DF938C01892B09F450
:103980006CC0F12CEE24E394E8012196F8018491B7
:10399000843740F4843008F051C0813081F08230A7
:1039A00019F15BC0853709F444C0A8F19CE7980F72
:1039B000903708F052C08F770E94451641C00E5FC5
:1039C0001F4FFE01849190E2980F983050F4877059
:1039D000FE2D01C0FF0F8A95EAF78F2F0E943F1F2F
:1039E00014C00E9496152DC00E5F1F4FFE018491DA
:1039F00090E2980F983060F48770FE2D01C0FF0FA1
:103A00008A95EAF78F2F0E94451F0E946A1F19C0EE
:103A10000E94451616C00E5F1F4FFE01C491CC23B5
:103A200081F08FE99FE00197F1F700C00000C150DD
:103A3000F6CF0E5F1F4FFE01F49003C00E94961553
:103A40008E018F2D882309F49FCFEFE9FFE0319796
:103A5000F1F700C000008150F5CFDF91CF911F91A9
:103A60000F91FF90EF900895089508950C94351DDF
:103A70000C94361D0E94381D6093F4027093F50279
:103A80008093F6029093F7020C9436190C943A1D29
:103A90000F931F930091F4021091F5022091F6020A
:103AA0003091F702602B712B822B932B1F910F917A
:103AB0000C943A1D0F931F930091F4021091F5029C
:103AC0002091F6023091F702602371238223932321
:103AD0001F910F910C943A1D0F931F930091F402C4
:103AE0001091F5022091F6023091F70260277127BC
:103AF000822793271F910F910C943A1D0C94351D2A
:103B00000E947E1D6093F0027093F1028093F20296
:103B10009093F3020C94361960E070E0CB010C94A2
:103B2000801D0F931F9341E050E060E070E08A0138
:103B30009B0104C0000F111F221F331F8A95D2F76B
:103B4000C901B8011F910F910C94801D0F931F9311
:103B500041E050E060E070E004C0440F551F661F74
:103B6000771F8A95D2F78091F0029091F102A0918F
:103B7000F202B091F3028A019B01082B192B2A2B28
:103B80003B2BC901B8011F910F910C94801D0F931D
:103B90001F9341E050E060E070E004C0440F551F07
:103BA000661F771F8A95D2F740955095609570955E
:103BB0008091F0029091F102A091F202B091F30293
:103BC0008A019B01082319232A233B23C901B80139
:103BD0001F910F910C94801D0F931F9341E050E0B3
:103BE00060E070E004C0440F551F661F771F8A9580
:103BF000D2F78091F0029091F102A091F202B0917F
:103C0000F3028A019B01082719272A273B27C901AC
:103C1000B8011F910F910C94801D0F931F93009179
:103C2000F0021091F1022091F2023091F302602B28
:103C3000712B822B932B1F910F910C94801D0F934E
:103C40001F930091F0021091F1022091F202309145
:103C5000F30260237123822393231F910F910C940D
:103C6000801D0F931F930091F0021091F10220919B
:103C7000F2023091F30260277127822793271F9168
:103C80000F910C94801D089529E0929F800D1124BE
:103C9000E82FE695E695E695877051E001C0550F4F
:103CA0008A95EAF785E0E89FF0011124E655FD4F7B
:103CB00020E030E070E04081CB01022E02C09695FA
:103CC00087950A94E2F7817081958427852384275C
:103CD00081932F5F3F4F2530310569F7089529E023
:103CE000929F800D1124682F669566956695982F92
:103CF000977085E0689FB001112440E050E080E0BB
:103D0000FB01E40FF51FE655FD4F208130E0092E41
:103D100002C0369527950A94E2F721703327042EC6
:103D200001C0220F0A94EAF7822B4F5F5F4F4530A4
:103D3000510531F70895BF92CF92DF92EF92FF9233
:103D40000F931F93CF93DF938C01C090F002D0901C
:103D5000F102E090F202F090F3028091F40290916F
:103D6000F502A091F602B091F702C82AD92AEA2AF0
:103D7000FB2ACFE1D0E0D701C6010C2E04C0B695D6
:103D8000A795979587950A94D2F780FD04C021974F
:103D900090F7B12C07C0BC2EB8018C2F0E9465058E
:103DA0000197A9F38B2DDF91CF911F910F91FF9078
:103DB000EF90DF90CF90BF900895CF93DF93EC0109
:103DC0000E949B1EBE010E946505DF91CF91089560
:103DD0001F93CF93DF93EB0190917102992321F010
:103DE000CB010E94DD1E13C0882349F0CB010E9445
:103DF0009B1E182F682FCE010E94441E04C0CB01C9
:103E00000E946F1E182FBE01812F0E946505DF9151
:103E1000CF911F9108958091F8028595859585959C
:103E200008958091F802877008959091F802977034
:103E300081E009F480E0089580911C030895909139
:103E40001C03892B80931C030895809590911C037B
:103E5000892380931C03089510921C030895909168
:103E60001B03892B80931B030895809590911B035E
:103E7000892380931B03089510921B03089590914A
:103E80001A03892B80931A030895809590911A0341
:103E9000892380931A03089510921A03089580913C
:103EA000F902089508950C94521F0C94531F909199
:103EB000F902981721F08093F9020C94551F089588
:103EC0008091F902882329F01092F90280E00C9485
:103ED000551F0895E0911701F091180180911C037E
:103EE0008083E0911701F0911801908180911B036C
:103EF000892B8083E0911701F091180190818091C6
:103F00001A03892B80838091F902882381F0E09144
:103F10001701F09118019081892B808380911701FE
:103F2000909118010E94832081110E94601F80914E
:103F30001701909118010C9434140C94521F98E0BE
:103F4000899F90011124262B2093F8020E94A61D20
:103F50008091F8028595859585950C949D1F10920A
:103F6000F80280E00C949D1F2091F8028095822336
:103F70008093F802982F977079F430E0482F082E3C
:103F8000000C550B2417350739F0859585958595D7
:103F90000E94C71D0C94AF1F08956FEF7FEF80E064
:103FA00090E00C94352F80E090E00E94112F21E0EA
:103FB0008C3E9E4F09F020E0822F089582E090E031
:103FC0000C94032F83E090E00C94032FCF9384E0B4
:103FD00090E00E94032FC82F81E290E00E94032FFF
:103FE0002C2F30E0A901582BCA01CF910895CF930F
:103FF000C92F682F84E090E00E94172F6C2F81E278
:1040000090E0CF910C94172F86E090E00C94032F52
:10401000682F86E090E00C94172FAB01BC018FE075
:1040200090E00C94292FAB01BC0183E190E00C944B
:10403000292F60E070E0CB010C94132060E070E069
:10404000CB010E940D200C9419206CEE7EEF80E0D5
:1040500090E00E94352F60E082E090E00E94172FF0
:1040600060E083E090E00E94172F1092F40210921B
:10407000F5021092F6021092F70260E084E090E000
:104080000E94172F60E081E290E00E94172F60E00D
:1040900085E090E00E94172F60E086E090E00E94AB
:1040A000172F6FEF87E090E00E94172F40E050E05D
:1040B000BA0188E090E00E94292F60E08DE090E056
:1040C0000E94172F40E050E0BA0188E190E00E9482
:1040D000292F60E087E190E00E94172F40E050E038
:1040E000BA018CE190E00E94292F60E080E290E02C
:1040F0000E94172F0C941E200C942520682F8EE010
:1041000090E00C94172FFC01329680912B018823AC
:1041100031F08091CA0387FF02C09EE101C096E0A2
:1041200080E0915028F021912223D9F38F5FF9CFBD
:104130000895662351F120912B012223E9F020916B
:10414000CA0327FF19C0462F4695469546954E311E
:10415000E0F4677021E030E002C0220F331F6A955F
:10416000E2F7FC01E40FF11D828190E0282339235E
:1041700081E0232B69F409C0FC0132960896219155
:10418000621729F0E817F907D1F780E0089581E078
:1041900008959C01FC0132969FEF80E04191461703
:1041A00089F09F3F19F4411101C0982F8F5F86302D
:1041B000A9F79F3F39F0F901E90FF11D97FDFA9535
:1041C0006283089508959C012A5F3F4FFC0142815C
:1041D000461301C01282019682179307B9F708951A
:1041E000262F2695269526952E3168F4FC01E20FA0
:1041F000F11D677021E030E001C0220F6A95EAF7F7
:104200008281282B22830895262F26952695269590
:104210002E3170F4FC01E20FF11D677021E030E0F7
:1042200001C0220F6A95EAF7209582812823228314
:10423000089520912B01222329F02091CA0327FD04
:104240000C94F0200C94C92020912B01222329F0FA
:104250002091CA0327FD0C9404210C94E3202091A3
:104260002B01FC013296222331F08091CA0387FF93
:1042700002C08EE101C086E0DF011D928A95E9F758
:10428000089508950C9441210C944121CF930E94EC
:1042900044210E94BB070E944221C0E08C2F0E9453
:1042A0005407892B29F4CF5FCC30C1F780E001C0DF
:1042B00081E0CF9108950C9441210C945B210E94E0
:1042C0005D218091D003843009F43CC010921E031C
:1042D00020E488E190E00FB6F894A8958093600000
:1042E0000FBE2093600080E00E94231180E00E94B6
:1042F000E4040E947B0E80911F0381110AC081E0BB
:1043000080931F03809184038170809320030E9417
:10431000AE0D0E945D2183B7817F846083BF83B728
:10432000816083BF7894889583B78E7F83BF0FB6F3
:10433000F894A89580916000886180936000109245
:1043400060000FBE08950C9441210E9450190E94F4
:10435000E10F0E9428140E94E40410921F03809130
:10436000200381110E94730E0E94C00D0C94A321A2
:104370001F920F920FB60F9211248F939F93AF93BA
:10438000BF9380911E03811113C08091C603909149
:10439000C703A091C803B091C9034196A11DB11DE7
:1043A0008093C6039093C703A093C803B093C90337
:1043B000BF91AF919F918F910F900FBE0F901F9063
:1043C000189582E084BD93E095BD9AEF97BD8093E8
:1043D0006E0008952FB7F8948091C6039091C7039B
:1043E000A091C803B091C9032FBF08959C014FB796
:1043F000F8948091C6039091C703A091C803B0912F
:10440000C9034FBF821B930B089578941F920F929C
:104410000FB60F9211248F939F93AF93BF93809108
:10442000C6039091C703A091C803B091C903019638
:10443000A11DB11D8093C6039093C703A093C80329
:10444000B093C903BF91AF919F918F910F900FBE11
:104450000F901F90189581E08093E00080E2809398
:10446000D8001092C9008FE19EE40197F1F700C0D7
:10447000000087E090EBDC018093D9039093DA038E
:10448000A093DB03B093DC039CE088E10FB6F894C3
:10449000A895809360000FBE90936000FFCF0C94AE
:1044A000CD1F0E94BB078FE39CE90197F1F700C085
:1044B00000000E94BB0780E00E94540780FF04C0F8
:1044C0000E944F220C942B2208950E94D31F811129
:1044D00002C00E947C200E94DE1F80931D030E9468
:1044E000E61F9093CB038093CA030E94E21F682FBC
:1044F00070E080E090E00C94461D8091280380FFDE
:104500000BC060911E0185E0689FB0011124759574
:104510006795759567952BC081FF09C060911E0155
:1045200085E0689FB00111247595679520C082FFD2
:1045300007C060911E0185E0689FB001112417C07B
:10454000909127039923D1F060911D01961788F768
:1045500020911E0185E0289F90011124929FA001C7
:10456000939F500D112470E0CA010E94442E6038C0
:10457000710540F46115710519F406C065E070E03D
:10458000862F08958FE7089581E00895809128038C
:1045900080FF08C060911A0170E075956795759568
:1045A000679521C081FF06C060911A0170E0759582
:1045B000679519C082FF04C060911A0170E010C0B5
:1045C00090912703992399F0609119019617A0F70C
:1045D00080911A01899FC001112470E00E94442E2D
:1045E0006038710540F46115710519F406C061E089
:1045F00070E0862F08958FE7089581E00895803F49
:1046000021F40E947D22819504C0813F29F40E94FB
:104610007D2280932C030895823F21F40E947D2205
:10462000819504C0833F29F40E947D2280932B034F
:104630000895893F19F40E94C62205C08A3F31F4CB
:104640000E94C622819580932D0308958B3F21F40B
:104650000E94C622819504C08C3F29F40E94C62284
:1046600080932E030895843F21F480912A03816072
:1046700017C0853F21F480912A03826011C0863FD4
:1046800021F480912A0384600BC0873F21F480913C
:104690002A03886005C0883F31F480912A03806135
:1046A00080932A0308958D3F21F48091280381602F
:1046B0000BC08E3F21F480912803826005C08F3F9C
:1046C00029F4809128038460809328030895803F13
:1046D00039F480912C0387FF6CC010922C0369C0C1
:1046E000813F29F480912C031816BCF362C090918D
:1046F0002B03823F29F497FF5CC010922B0359C013
:10470000833F19F41916CCF354C0893F41F48091CA
:104710002D0318160CF04DC010922D034AC08A3F8D
:1047200029F480912D0387FF44C0F6CF8B3F39F4E5
:1047300080912E0387FF3DC010922E033AC08C3F1C
:1047400029F480912E031816BCF333C0843F21F462
:1047500080912A038E7F17C0853F21F480912A0320
:104760008D7F11C0863F21F480912A038B7F0BC07F
:10477000873F21F480912A03877F05C0883F31F469
:1047800080912A038F7E80932A0313C08D3F21F4EA
:10479000809128038E7F0BC08E3F21F480912803E7
:1047A0008D7F05C08F3F29F4809128038B7F8093F4
:1047B000280380912B0381110EC080912C0381115D
:1047C0000AC080912D03811106C080912E038111B2
:1047D00002C010922703089589E293E00E944E14CC
:1047E0000E94EA2190932603809325030895CF9396
:1047F000DF9300D000D000D0CDB7DEB786E0E9E28D
:10480000F3E0DE01119601900D928A95E1F7809117
:104810002B03811105C080912C03882309F47AC0F1
:1048200080912303909124030E94F621AC01909182
:104830002703992339F020911F0130E02417350711
:1048400058F068C0209120018AE0289F900111242F
:104850002417350718F05EC09F3F19F09F5F9093B3
:10486000270310922D0310922E0380912B0318160C
:1048700024F40E947D2280932B0380912B0387FFD9
:1048800005C00E947D22819580932B0380912C038B
:10489000181624F40E947D2280932C0380912C030F
:1048A00087FF05C00E947D22819580932C03309163
:1048B0002B033323E1F020912C032223C1F045EB9D
:1048C0003403C0011124992319F090932B0303C0E2
:1048D00081E080932B0335EB2303C001112499233E
:1048E00019F090932C0303C081E080932C030E9465
:1048F000EC238091250390912603909324038093C9
:10490000230386E0FE013196A9E2B3E001900D9207
:104910008A95E1F780912D03811105C080912E03C6
:10492000882309F47AC080912103909122030E9488
:10493000F621AC0190912703992339F020911B01B6
:1049400030E02417350758F068C020911C018AE038
:10495000289F900111242417350718F05EC09F3F4F
:1049600019F09F5F9093270310922B0310922C0352
:1049700080912D03181624F40E94C62280932D03E3
:1049800080912D0387FF05C00E94C62281958093E8
:104990002D0380912E03181624F40E94C6228093C2
:1049A0002E0380912E0387FF05C00E94C6228195A9
:1049B00080932E0330912D033323E1F020912E03B9
:1049C0002223C1F045EB3403C0011124992319F0CF
:1049D00090932D0303C081E080932D0335EB2303D7
:1049E000C0011124992319F090932E0303C081E094
:1049F00080932E030E94EC2380912503909126033F
:104A0000909322038093210386E0FE013196A9E270
:104A1000B3E001900D928A95E1F726960FB6F894CF
:104A2000DEBF0FBECDBFDF91CF910895E9E2F3E085
:104A300086E0DF011D928A95E9F710922703109214
:104A400028030895833081F128F4813059F08230B1
:104A5000D1F00895853009F449C0B8F1863009F4E1
:104A600056C0089580912001262F30E0280F311D77
:104A70002F3F310524F4680F6093200108958FEFD4
:104A800080932001089580911F01262F30E0280F88
:104A9000311D2F3F310524F4680F60931F010895E5
:104AA0008FEF80931F01089580911E01262F30E023
:104AB000280F311D2F3F310524F4680F60931E012C
:104AC00008958FEF80931E01089580911D01262F78
:104AD00030E0280F311D2F3F310524F4680F60931B
:104AE0001D0108958FEF80931D01089580911A0193
:104AF000262F30E0280F311D2F3F310524F4680F99
:104B000060931A0108958FEF80931A0108958091A0
:104B10001901262F30E0280F311D2F3F310524F4D5
:104B2000680F6093190108958FEF8093190108951C
:104B3000833011F128F4813049F0823091F00895EA
:104B4000853081F120F18630C1F1089580912001F6
:104B5000681720F4861B809320010895109220018D
:104B6000089580911F01681720F4861B80931F0110
:104B7000089510921F01089580911E01681720F476
:104B8000861B80931E01089510921E010895809146
:104B90001D01681720F4861B80931D010895109253
:104BA0001D01089580911A01681720F4861B8093D7
:104BB0001A01089510921A01089580911901681739
:104BC00020F4861B8093190108951092190108950D
:104BD0000F931F9341E050E060E070E08A019B0179
:104BE00004C0000F111F221F331F8A95D2F7C9017D
:104BF000B8010E94461D1F910F910C945019482F27
:104C000050E0FA013597EF33F10508F060C0E15745
:104C1000FF4F0C947A2E0E947C2055C080911D037A
:104C2000817F8E7F80931D0381E080933003089500
:104C30000E94EE0448C080911D03982F90959170BA
:104C400090FB80F980931D0391113DC0897F877F80
:104C500010C080911D0381FB222720F991E092274B
:104C600090FB81F980931D03992369F180911D03C5
:104C7000816080931D0327C080911D0382FB222742
:104C800020F991E0922790FB82F9ECCF80911D03EF
:104C900083FB222720F991E0922790FB83F9E2CF52
:104CA0000E9450198091CA0387FB222720F991E0C6
:104CB000922790FB87F98093CA0305C0895301C0EE
:104CC0008D510E94E82581E0089580E0FACF80E0D0
:104CD000089580E008950C9469268E518A3030F44E
:104CE000E82FF0E0E253FE4F8081089580E00895C0
:104CF000CF93C82F80913003813051F018F082306B
:104D000099F17DC00E941C1F823209F07AC004C054
:104D10000E941C1F823261F48C2F0E946B2681112D
:104D200004C08C2F0E94FF251DC081E090E01AC0B6
:104D30008C2F0E946926811114C0C43179F048F487
:104D4000CB3079F0C03109F060C082E0809330034D
:104D500008C0C93219F0C83321F057C0109230038F
:104D600054C081E0817053C0C93289F118F5C43153
:104D700071F1B0F4C73009F046C08EE18093200194
:104D800082E380931F018AE080931E0184E1809377
:104D90001D0188E080931A0188E28093190133C0D5
:104DA00082EE8C0F863078F58C2F0E946D268093D2
:104DB0002F0329C0CE34E9F020F4CB3421F56AE08A
:104DC00013C0C13579F0C235F1F461E00DC08091B6
:104DD0002F03882319F010922F0315C081E08093D0
:104DE000300315C061E006C080912F030E94222588
:104DF0000AC06AE080912F030E94982504C0109297
:104E0000300380E004C081E002C080E0ABCFCF91EE
:104E10000895809151030895CF93DF9300D01F929E
:104E2000CDB7DEB79091D003943019F589837B8399
:104E30006A8382E08093E9008FEF9091E8008150CF
:104E400095FD06C095ED9A95F1F700008111F5CF1B
:104E50008091E80085FF0DC040E050E063E070E025
:104E6000CE0101960E9468298091E8008E77809398
:104E7000E8000F900F900F90DF91CF910895CF939E
:104E8000DF93EC010E944B29823011F0843031F421
:104E9000BE0184E0DF91CF910C940C27DF91CF917C
:104EA0000895BC0183E00C940C27CF93DF93EC01B1
:104EB0000E944B29823011F08430F9F482E0809313
:104EC000E9008FEF9091E800815095FD06C095EDC7
:104ED0009A95F1F700008111F5CF8091E80085FFE8
:104EE0000CC040E050E066E070E0CE010E9468290E
:104EF0008091E8008E778093E800DF91CF9108954C
:104F0000CF93DF93EC010E944B29823011F0843063
:104F1000D9F580912B01882339F08091CA0387FF4E
:104F200003C060E282E002C068E081E08093E900B3
:104F30008FEF9091E800815095FD06C095ED9A9510
:104F4000F1F700008111F5CF8091E80085FF1CC0CA
:104F500080912B01811105C040E050E068E070E0D5
:104F600003C070E040E050E0CE010E9468298091CB
:104F7000E8008E778093E80080E2FE01A1E3B3E0D1
:104F800001900D928A95E1F7DF91CF91089580917C
:104F9000CF03811109C00E94F92A0E94562B8091EB
:104FA000E20084608093E20008951092CF03089598
:104FB000089508950C94A52142E061EC81E00E94DF
:104FC000722A42E261EC82E00C94722A8091D20350
:104FD000833009F460C030F4813071F0823009F41C
:104FE00099C008958A3009F485C08B3009F46BC0EC
:104FF000893009F0A7C020C08091D103813A09F01F
:10500000A1C08091E800877F8093E8008091D5035C
:105010009091D603892B21F460E281E393E003C0F1
:1050200060E080E090E070E00E94B3298091E800A9
:105030008B778093E80008958091D103813209F045
:1050400081C08091D5039091D603029708F07AC071
:105050008091E800877F8093E8008091E80082FDDE
:1050600005C08091D0038111F8CF6CC02091F3006E
:105070008091F20090E0922B029729F48091F10048
:105080008B7F813021F48091F100809351038091D6
:10509000E8008B7753C08091D103813A09F052C068
:1050A0008091D5039091D603892B09F04BC0809154
:1050B000E800877F8093E8008091E80080FFFCCFC4
:1050C00080912B0136C08091D1038132D9F5809136
:1050D000D5039091D603892BA9F58091E800877FAD
:1050E0008093E8000E94A72A8091D30380932B012C
:1050F0000C9450198091D103813221F58091E80000
:10510000877F8093E8000E94A72A8091D403809330
:10511000520308958091D103813AA1F48091E8006F
:10512000877F8093E8008091E80080FFFCCF80912A
:1051300052038093F1008091E8008E778093E8001D
:105140000C94A72A089584B7877F84BF0FB6F8947C
:10515000A895809160008861809360001092600043
:105160000FBE90E080E80FB6F894809361009093B2
:1051700061000FBE0E9498140E94F92A0E94562BCB
:105180008091E20084608093E20078940E94EB2D8D
:105190000E94A21481E291E00E9423148091D00326
:1051A000853069F40E945F218091CE038823B1F39A
:1051B0000E944621882391F30E945229EFCF0E943A
:1051C000AE14ECCF0C94E428292F3327233031057B
:1051D000C9F060F42130310581F02230310509F049
:1051E0004AC08BE390E026E037E049C02132310528
:1051F00011F12232310579F13EC082E190E021E4E3
:1052000037E03DC099278130910561F040F0823050
:10521000910559F0039779F5E2EDF6E008C0E2E078
:10522000F7E005C0E0EFF6E002C0E8EDF6E08491BB
:1052300090E09F0124C06115710541F06130710556
:10524000D1F489E090E021E337E019C089E090E0F3
:1052500028E137E014C06115710541F06130710536
:1052600051F48CEB90E023E537E009C080E490E056
:105270002FE038E004C080E090E020E030E0FA0168
:105280003183208308958091D003843011F081E030
:10529000089582E0089580915303811102C00C9417
:1052A0004329089580E189BD82E189BD09B400FEEA
:1052B000FDCF8091D8008F7D8093D8008091E00051
:1052C00082608093E0008091E00081FDFCCF089532
:1052D000CF92DF92EF92FF920F931F93CF93DF93C2
:1052E000EC018B017A010E94C62A811133C0E114BE
:1052F000F10439F0F70180819181081B190BC80F67
:10530000D91FC12CD12C0115110519F18091E8008C
:1053100085FD16C08091E8008E778093E800E11447
:10532000F10449F0F70180819181C80ED91ED18224
:10533000C08285E00FC00E94C62A882321F30AC0DC
:1053400089918093F10001501109FFEFCF1ADF0A14
:10535000DACF80E0DF91CF911F910F91FF90EF9016
:10536000DF90CF9008952091D7033091D80326176E
:10537000370748F06115710539F42091E8002E7760
:105380002093E80001C0B901FC0120E0611571051E
:1053900079F18091D0038823F1F18530F1F180918A
:1053A000E80083FD3CC08091E80082FD2EC0809122
:1053B000E80080FFEBCF2091F3008091F20090E0B5
:1053C000922B6115710551F08830910538F42191C7
:1053D0002093F100615071090196F3CF21E0089705
:1053E00009F020E08091E8008E778093E800CECF2E
:1053F0002111CFCF0AC08091D003882361F085307E
:1054000061F08091E80083FD0AC08091E80082FF8E
:10541000F2CF80E0089582E0089583E0089581E06E
:1054200008952091D7033091D8032617370748F005
:105430006115710539F42091E8002E772093E8007A
:1054400001C0B901FC0120E06115710591F1809165
:10545000D003882309F440C0853009F43FC080910F
:10546000E80083FD3DC08091E80082FD2FC080915F
:10547000E80080FFE9CF2091F3008091F20090E0F6
:10548000922B6115710559F08830910540F42491F3
:105490002093F1003196615071090196F2CF21E01D
:1054A000089709F020E08091E8008E778093E8006B
:1054B000CBCF2111CCCF0AC08091D003882361F0DB
:1054C000853061F08091E80083FD0AC08091E8009A
:1054D00082FFF2CF80E0089582E0089583E008958E
:1054E00081E00895982F973068F59093E900981718
:1054F00039F07091EC002091ED005091F00003C064
:10550000242F762F50E021FD02C09F5FECCF309119
:10551000EB003E7F3093EB003091ED003D7F309308
:10552000ED003091EB0031603093EB007093EC00B4
:105530002093ED005093F0002091EE0027FDE5CF81
:1055400080E008958F708093E90081E00895809154
:10555000D10387FF11C08091E80082FD05C08091D2
:10556000D0038111F8CF11C08091E8008B770BC078
:105570008091D003882349F08091E80080FFF8CF24
:105580008091E8008E778093E80008952091E400F0
:105590003091E50095E64091EC00842F817040FF4A
:1055A00023C08091E80080FD1DC08091D003882336
:1055B00099F0853099F08091EB0085FD11C0409104
:1055C000E4005091E5002417350729F3915011F0BC
:1055D0009A01E1CF84E0089582E0089583E0089580
:1055E00081E0089580E008954091E80042FFDDCF1A
:1055F00008950E94672B0E946F2BE0EEF0E08081FF
:1056000081608083E8EDF0E080818F77808319BC32
:10561000A7EDB0E08C918E7F8C9380818F7E80830C
:105620001092CF0308950F931F93CF93DF930E949F
:10563000672B0E946F2BC8EDD0E088818F7788831D
:1056400088818068888388818F7D888319BC1092C7
:10565000D0031092CC031092CE031092CD0300EE33
:1056600010E0F80180818B7F80838881816088834E
:1056700042E060E080E00E94722AE1EEF0E080818A
:105680008E7F8083E2EEF0E0808181608083808184
:1056900088608083F80180818E7F8083888180612B
:1056A0008883DF91CF911F910F910895E8EDF0E08D
:1056B00080818F7E8083E7EDF0E080818160808350
:1056C00084E082BF81E08093CF030C94132BE8ED3C
:1056D000F0E080818E7F80831092E2000895109226
:1056E000DA001092E10008951F920F920FB60F9208
:1056F00011242F933F934F935F936F937F938F93D7
:105700009F93AF93BF93EF93FF938091E10082FF4C
:105710000BC08091E20082FF07C08091E1008B7F87
:105720008093E1000E94EA2D8091DA0080FF1FC083
:105730008091D80080FF1BC08091DA008E7F80931B
:10574000DA008091D90080FF0DC080E189BD82E13F
:1057500089BD09B400FEFDCF81E08093D0030E9493
:10576000C72705C019BC1092D0030E94D52780918D
:10577000E10080FF19C08091E20080FF15C0809198
:10578000E2008E7F8093E2008091E200806180934E
:10579000E2008091D80080628093D80019BC85E037
:1057A0008093D0030E94D9278091E10084FF30C00C
:1057B0008091E20084FF2CC080E189BD82E189BD37
:1057C00009B400FEFDCF8091D8008F7D8093D80072
:1057D0008091E1008F7E8093E1008091E2008F7ED6
:1057E0008093E2008091E20081608093E2008091EA
:1057F000CC03882311F084E007C08091E30087FD8B
:1058000002C081E001C083E08093D0030E94DA27C8
:105810008091E10083FF29C08091E20083FF25C0D1
:105820008091E100877F8093E10082E08093D00344
:105830001092CC038091E1008E7F8093E1008091F3
:10584000E2008E7F8093E2008091E200806180938D
:10585000E20042E060E080E00E94722A8091F00065
:1058600088608093F0000E94D827FF91EF91BF914C
:10587000AF919F918F917F916F915F914F913F91E8
:105880002F910F900FBE0F901F9018951F920F929F
:105890000FB60F9211242F933F934F935F936F9303
:1058A0007F938F939F93AF93BF93CF93DF93EF93A8
:1058B000FF93C091E900CF708091EC00D82FD17098
:1058C00080FDD0E81092E9008091F000877F8093FE
:1058D000F00078940E948A2C1092E9008091F000E8
:1058E00088608093F000CD2BCF70C093E900FF91CA
:1058F000EF91DF91CF91BF91AF919F918F917F9168
:105900006F915F914F913F912F910F900FBE0F902C
:105910001F9018951F93CF93DF93CDB7DEB7AA974B
:105920000FB6F894DEBF0FBECDBFE1EDF3E080917E
:10593000F100819323E0E93DF207C9F70E94E627D1
:105940008091E80083FF2EC18091D1039091D20312
:10595000492F50E04A30510508F024C1FA01E253C2
:10596000FF4F0C947A2E803821F0823809F01AC14A
:1059700008C08091CD039091CE03992389F0826075
:105980000FC08091D5038F70873008F00BC18093D2
:10599000E9008091EB0085FB882780F91092E900EF
:1059A0009091E800977F9093E8008093F100109227
:1059B000F100D1C0282F2D7F09F0F4C0882319F001
:1059C000823061F0EFC08091D303813009F0EAC0EA
:1059D000933009F080E08093CE032EC08091D303F2
:1059E00081112AC08091D5038F702FEF280F2630A8
:1059F00008F0D8C08093E9002091EB0020FF1CC084
:105A0000933021F48091EB00806214C09091EB0000
:105A100090619093EB0021E030E0A90102C0440FB7
:105A2000551F8A95E2F74093EA001092EA008091B0
:105A3000EB0088608093EB001092E9008091E80011
:105A4000877F8093E8000E94A72AACC08111AAC07A
:105A50001091D3031F778091E3008078812B80938E
:105A6000E3008091E800877F8093E8000E94A72AE6
:105A70008091E80080FFFCCF8091E30080688093F4
:105A8000E300111102C082E001C083E08093D003E3
:105A900089C08058823008F085C08091D3039091EE
:105AA000D4038C3D53E0950779F583E08A838AE23D
:105AB00089834FB7F894DE01139620E03EE051E26F
:105AC000E32FF0E050935700E49120FF03C0E295EC
:105AD000EF703F5FEF708E2F90E0EA3010F0C796C6
