:100000000C9494040C94DB040C94DB040C94DB043B
:100010000C94DB040C94DB040C94DB040C94DB04E4
:100020000C94DB040C94DB040C94E02B0C94B22CA9
:100030000C9424220C94DB040C94DB040C94DB045D
:100040000C94DB040C94DB040C94DB040C94DB04B4
:100050000C94CE110C9471220C94DB040C94DB04F0
:100060000C94DB040C94DB040C94DB040C94DB0494
:100070000C94DB040C94DB040C94DB040C94DB0484
:100080000C94DB040C94DB040C94DB040C94DB0474
:100090000C94DB040C94DB040C94DB040C94DB0464
:1000A0000C94DB040C94DB040C94DB04C60FC90F26
:1000B000D10FD60FDB0FE00FE50FEA0FEF0FF40FB4
:1000C000F90FFE0F00100310061009100C100F108E
:1000D00011101610361138113D11401143114611FF
:1000E000491170177017A217A217EF170D182E19C4
:1000F0002E191818AD18BE18BE181E192E192E1953
:100100002719CE19CE19E019E019D719E019E0190D
:10011000E019CE19CE19DC19E019E019DC19842692
:100120007A268726CF26D326D326CF26D326D326B4
:10013000A826D326B226BC26D326D326D326D3265A
:10014000CF26D326D326CF26D3269526D326D3262D
:10015000CC26CC26CC26CC26CC26CC26CC26CC260F
:10016000CC26D126D32684267726D326D326D3267B
:10017000D326D326D326D326D326D326D326D126B9
:10018000D326D326CF26D326CA26CA26CA26CA26CF
:10019000CA26CA26CA26CA26CA26D1261F2D462DF9
:1001A0003E2E462D3E2E922DB52D3E2E0C2E1B2E74
:1001B00029003A003C003E00400042004400460056
:1001C000480000003B003D003F0041004300450067
:1001D0004700000035001F002100230025002700F4
:1001E0002E0049004B001E002000220024002600A3
:1001F0002D002A004A0000002B001A0015001C00E8
:100200000C00130030004C004E00140008001700D2
:10021000180012002F0031004D000000E000160011
:1002200009000B000E003300000000000000040075
:1002300007000A000D000F00340028000000000035
:10024000E1001D000600050010003700E500000079
:10025000000000001B0019001100360038000000EB
:10026000520000000151E20000002C000000E600F6
:10027000650050004F00E300000000000000000097
:100280000151E400510000000100010001000100E3
:100290000100010001000100010000000100010057
:1002A000010001000100010001000000C25CC95C06
:1002B000C75C0100010001000100AE00AB00C35C9F
:1002C000C55CCB5C0100010001000100AC00000036
:1002D0003900CA5CC85C0100520001000100A8009E
:1002E000A900C45CC65CCC5C0100010001000100F7
:1002F000AA000000010001000100010051000100FE
:1003000000000000000001000100010050004F004B
:1003100001000100000000000100010001000100D7
:1003200001000100010000000000000001000100C8
:1003300001000100010000000100000001000A5C52
:100340000000010000000253010001000100135CE5
:10035000000000000000000001000100010000009A
:1003600029003A003C003E004000420044004600A4
:10037000480000003B003D003F00410043004500B5
:100380004700000035001F00210023002500270042
:100390002E0049004B001E002000220024002600F1
:1003A0002D002A004A0000002B001A0015001C0036
:1003B0000C00130030004C004E0014000800170021
:1003C000180012002F0031004D0000003900160007
:1003D00009000B000E0033000000000000000400C4
:1003E00007000A000D000F00340028000000000084
:1003F000E1001D000600050010003700E5000000C8
:10040000000000001B001900110036003800000039
:1004100052000000E000E20000002C00000001009B
:10042000650050004F00E3000000000000000000E5
:100430000351E4005100000001000100010001002F
:1004400001000100010001000100000001000100A5
:10045000010001000100010001000000C25CC95C54
:10046000C75C0100010001000100AE00AB00C35CED
:10047000C55CCB5C0100010001000100AC00000084
:100480000100CA5CC85C0100520001000100A80024
:10049000A900C45CC65CCC5C010001000100010045
:1004A000AA0000000100010001000100510001004C
:1004B00000000000000001000100010050004F009A
:1004C0000100010000000000010001000100010026
:1004D0000100010001000000000000000100010017
:1004E00001000100010000000100000001000A5CA1
:1004F0000000010000000253010001000100135C34
:1005000000000000000000000100010001000000E8
:1005100032190A00047F3F1F643214643214783C9D
:100520001E1E140A052223252628292A2C2D2F30A9
:1005300032333536383A3B3D3E4042434547494ADF
:100540004C4E5051535557595A5C5E606264666810
:10055000696B6D6F71737577797B7D7F818385871B
:10056000898A8C8E90929496989A9C9E9FA1A3A51E
:10057000A7A8AAACAEAFB1B3B4B6B8B9BBBCBEBF46
:10058000C1C2C3C5C6C7C9CACBCCCDCED0D1D2D2C9
:10059000D3D4D5D6D7D7D8D9D9DADADBDBDBDCDCD4
:1005A000DCDCDCDDDDDDDDDCDCDCDCDCDBDBDBDA8C
:1005B000DAD9D9D8D7D7D6D5D4D3D2D2D1D0CECDF7
:1005C000CCCBCAC9C7C6C5C3C2C1BFBEBCBBB9B804
:1005D000B6B4B3B1AFAEACAAA8A7A5A3A19F9E9C89
:1005E0009A98969492908E8C8A89878583817F7D54
:1005F0007B79777573716F6D6B6968666462605E35
:100600005C5A5957555351504E4C4A4947454342FD
:10061000403E3D3B3A3836353332302F2D2C2A2997
:100620002826252322FFAA7F554000000000000055
:10063000000000000001010203040506080A0C0F77
:100640001114181C2024292E33393F464C535B6269
:100650006A7179818A929AA2AAB2B9C1C8CFD5DC4F
:10066000E1E7EBF0F4F7FAFCFDFEFFFEFDFCFAF724
:10067000F4F0EBE7E1DCD5CFC8C1B9B2AAA29A92F7
:100680008A8179716A625B534C463F39332E292443
:10069000201C1814110F0C0A08060504030201019E
:1006A0000000000000000000000000010101010145
:1006B000010101010202020202020202020303031B
:1006C00003030303030404040404040405050505EB
:1006D00005060606060607070707070808080809AB
:1006E0000909090A0A0A0B0B0B0C0C0C0D0D0D0E57
:1006F0000E0E0F0F0F1010111111121213131414EC
:10070000151516161717181819191A1A1B1B1C1D60
:100710001D1E1E1F202021222223242425262627B9
:100720002829292A2B2C2D2D2E2F303132323334EB
:1007300035363738393A3B3C3D3E3F4041424344F1
:1007400045464748494A4C4D4E4F505153545556D3
:1007500058595A5B5D5E5F616264656668696B6C7F
:100760006D6F7072737577787A7B7D7E80828385FA
:1007700087888A8C8E8F91939596989A9C9EA0A23A
:10078000A3A5A7A9ABADAFB1B3B5B7BABCBEC0C244
:10079000C4C6C9CBCDCFD1D4D6D8DBDDDFE2E4E708
:1007A000E9EBEEF0F3F5F8FAFDFF0403300000008A
:1007B00016034B0042004400380058002D004D0045
:1007C0004B0049004900000010034B004200440068
:1007D000660061006E007300000004030904090252
:1007E0003B00020100A0FA0904000001030101001E
:1007F0000921110100012240000705810308000AB8
:100800000904010001030000000921110100012277
:10081000BC000705820320000A120110010000003D
:100820000803A1050001000102030105010902A15D
:100830000185020901A100050919012905150025F5
:100840000195057501810295017503810105010975
:100850003009311581257F95027508810609381503
:1008600081257F950175088106050C0A38021581DE
:10087000257F950175088106C0C005010980A10189
:10088000850319012AB700150126B70095017510D7
:100890008100C0050C0901A101850419012AA002EB
:1008A000150126A002950175108100C005010906F9
:1008B000A1018505050719E029E71500250195081F
:1008C000750181020507190029EF1500250195F032
:1008D0007501810205081901290595057501910227
:1008E000950175039101C005010906A101050719CC
:1008F000E029E7150025019508750181029501752C
:100900000881010507190029FF150026FF0095063B
:1009100075088100050819012905950575019102E1
:10092000950175039101C00011241FBECFEFDAE0DD
:10093000DEBFCDBF04B603FE27C08091D9039091DE
:10094000DA03A091DB03B091DC038730904BA74022
:10095000B04BD1F41092D9031092DA031092DB035A
:100960001092DC0314BE84B7877F84BF0FB6F8945F
:10097000A89580916000886180936000109260006B
:100980000FBEE0E0F8E3099511E0A0E0B1E0E0EC93
:10099000FFE502C005900D92A83DB107D9F723E00D
:1009A000A8EDB1E001C01D92A93DB207E1F70E9498
:1009B0000F290C94DE2F0C940000229A6E9A0C944E
:1009C000D30781FF02C0769801C0769A82FF02C0E9
:1009D0002A9801C02A9A0C944B0581E0089581E081
:1009E00008950C94EF0408950C94F3041F93CF938F
:1009F000DF9300D000D01F92CDB7DEB749835A8372
:100A00006B833091710289819A81311114C0662300
:100A100059F0222349F00E94071F182F682F89815F
:100A20009A810E94B01E03C00E94DB1E182F6981AC
:100A30007A81812F04C00E94071F69817A810F90FB
:100A40000F900F900F900F90DF91CF911F910C940A
:100A5000B605FC01262F408151816281738184811A
:100A60000C94F604CF93DF93EC0160E00E9429051B
:100A7000BE01DF91CF910C94F4040E94BD220E942C
:100A80003F20811102C00E94E8200E943D120C9478
:100A9000DD040C94D107089581E008950C944C0571
:100AA000CF93C82F0E94E1048C2F0E944E05CF9156
:100AB000089508950E94BC190E9459052FEF84E300
:100AC0009CE0215080409040E1F700C000000C9471
:100AD00097220F931F93CF93DF93EC0161E00E9465
:100AE00029058C01BE010E94F1048823A9F1BE01F1
:100AF000C8010E942711882379F1BE01C8010E9414
:100B0000F212882349F1BE01C8010E9433138823E1
:100B100019F1BE01C8010E945E148823E9F0BE01EC
:100B2000C8010E94AF0F8823B9F08A81882369F039
:100B300001158CE5180731F00E3D1C4531F40E947B
:100B4000E8200AC00E945A0507C0CE01DF91CF916C
:100B50001F910F910C94ED0480E0DF91CF911F91D4
:100B60000F91089580E090E0089508952CE6829F0B
:100B7000C0011124FC0129E0729FE00DF11D112438
:100B8000E60FF11DEE0FFF1FE055FE4F859194918A
:100B90000895880F991FFC01E05FFA4F85919491A9
:100BA0000895CF93DF930E94B6050E94E906EC01F9
:100BB0008115904508F041C0C11580E4D80708F0C0
:100BC000D1C0C83ED10510F5C03ED10508F0FDC02A
:100BD000C83AD10578F4C53AD10508F0A2C0C130B1
:100BE000D10509F4F2C008F4EEC0C430D10508F014
:100BF000ECC0E9C0CF3BD10508F49BC0C03CD10597
:100C000008F4E1C0CE01805C91099EC0C11590E25C
:100C1000D90758F4C11521E0D20708F0D6C0C03F6B
:100C2000D10508F4D0C0D065D0C0C11580E3D80785
:100C300008F08EC0CE019F7087C0C11595E5D90719
:100C400008F043C0C11524E5D20708F0A2C0C115C1
:100C500082E5D80708F5C11591E5D90708F085C0E8
:100C6000CE0174E0969587957A95E1F783709C2F75
:100C7000937021E030E002C0220F331F9A95E2F713
:100C80003C68382BCF70C695C69580E2C89FE001BE
:100C90001124C22BD32B99C09E01237033278C2F94
:100CA00086958695C115D34508F064C0C1E0D0E0B3
:100CB00002C0CC0FDD1F2A95E2F720E2829FC0011F
:100CC0001124C82BD92BDC6880C0C11529E5D207B7
:100CD000A0F4C11588E5D80708F060C0C11596E5F5
:100CE000D90708F070C08C2F0E947D078F71C82F24
:100CF000D0E0DC2FCC27D06268C0C1152AE5D2072E
:100D000008F451C0CE0190568115904208F05BC0A6
:100D10008D2F8F710E947D07DD27D0628F71D82BB8
:100D200054C0C55AD0E0C65ADE4FC881D0E0D06466
:100D30004CC0C85AD0E0CC0FDD1FC45DDE4F099017
:100D4000D881C02DD46441C00E94C905EC013DC0CA
:100D5000CE019927D3FF03C0EC01D86C36C0EC015B
:100D6000D06C33C0DF70D06A30C0DC2FCC27C16FAD
:100D7000D06A2BC0C1E0D0E002C0CC0FDD1F2A95A5
:100D8000E2F720E2829FC0011124C82BD92BDA6838
:100D90001CC0DC2FCC27C46FD06A17C0DC2FCC2737
:100DA000C06FD06A12C08C2F8F700E947D0794E0B4
:100DB000D695C7959A95E1F7CF70D0E0DC2FCC2778
:100DC000D069C82B02C0C0E0D0E0CE01DF91CF9146
:100DD00008958238910569F1B0F48133910509F4E1
:100DE0006DC048F48932910509F463C08A329105D7
:100DF00009F469C008958533910509F455C0893314
:100E00009105B9F00895833E910569F138F4803E6B
:100E10009105B1F0823E910509F10895863E910554
:100E2000A9F1873E9105B9F1843E910509F064C0AE
:100E300023C02091CA0320FD4FC021FD4DC008955D
:100E40008091CA0380FD44C08091CB0380FF44C0E1
:100E50008091CA0384FD42C083EE4DC08091CA03D5
:100E600082FF38C0F5CF8091CA0382FD33C08091E4
:100E7000CB0380FD31C0ECCF8091CB0381FF32C02A
:100E80008091CA0384FD2AC087EE35C08091CA03D1
:100E900083FF26C0F5CF8091CA0383FD21C08091D6
:100EA000CB0381FD1FC0ECCF8091CA0385FD1CC020
:100EB0001DC08091CA0385FD19C016C08091CA0368
:100EC00086FD16C017C08091CA0386FD13C010C0EE
:100ED00089E311C082EE0FC080EE0DC080E00BC030
:100EE00086EE09C084EE07C089E205C085E303C031
:100EF0008AE201C081E390E008959091CA0392FFD5
:100F00000DC0282F2871283019F4877F846006C00F
:100F1000282F2471243011F48B7F886093FF0DC03B
:100F2000282F2871283119F4877E846106C0282F64
:100F30002471243111F48B7E88612091CB0320FF32
:100F40000DC0382F3871383019F4877F816006C0A2
:100F5000382F3171313011F48E7F886021FF0DC040
:100F6000282F2871283119F4877E816106C0282F27
:100F70002171213111F48E7E886194FD877E089560
:100F8000E82FF0E0EE0FFF1FE459FC4F80819181C4
:100F90000895089580EA8A95F1F7089508950C94CC
:100FA000CE070C94CF070C94CE07CF93DF93A6E621
:100FB000B1E042E751E061E070E08D91E82FE29509
:100FC000EF70F0E021A18F70EB0102C0CC0FDD1FAC
:100FD0008A95E2F7CE019C2F9095922391A392A13E
:100FE000892B82A34A175B0741F7ADE5B1E046E6DE
:100FF00051E061E070E08D91E82FE295EF70F0E054
:1010000021A18F70EB0102C0CC0FDD1F8A95E2F7A2
:10101000CE019C2F9095922391A392A1892B82A31C
:101020004A175B0741F7E4E5F3E0ACE6B3E08CE692
:1010300093E0119211921D921D928E179F07C9F78E
:101040008CE00E94B408DF91CF910C943D056F9223
:101050007F928F929F92AF92BF92CF92DF92EF9248
:10106000FF920F931F93CF93DF9386E6C82E81E004
:10107000D82E04E513E09CE6A92E93E0B92E712C3E
:1010800088248394912CF60181916F01C82FC29519
:10109000CF70D0E099A18F70740101C0EE0C8A95D9
:1010A000EAF7892F8E2989A38AA16E2C6094862164
:1010B0008AA30E94CA07EDE5F1E040E050E020E09D
:1010C00030E06191A62FA295AF70B0E090968C9120
:1010D00090E06F7002C0959587956A95E2F780FD64
:1010E00008C0C401042E02C0880F991F0A94E2F7B9
:1010F00002C080E090E0282B392B4F5F5F4F4930D2
:101100005105F9F689A1682269A28AA1E82AEAA212
:10111000F801808191812817390721F031832083DC
:1011200081E001C080E0782A0E5F1F4FA016B10653
:1011300009F0A9CF272D4CE06CE673E084E593E03D
:101140000E94B5080E944905872DDF91CF911F911C
:101150000F91FF90EF90DF90CF90BF90AF909F9056
:101160008F907F906F9008950895FF920F931F9333
:10117000CF93DF93F82E092F162FD72FC42F2223BA
:1011800049F081E08093DA010E9456229093D901C0
:101190008093D8018091DA018823D9F08091D80119
:1011A0009091D9010E946222069798F0EF2DF02FBE
:1011B000A12FBD2F80E090E04C2F50E084179507C1
:1011C00034F4219131912D933D930196F7CF1092F4
:1011D000DA01DF91CF911F910F91FF900895EF9267
:1011E000FF920F931F93CF93DF93F62E472FE82F95
:1011F000F0E0711106C0E655F94F6491762F862F05
:1012000072C0272F30E0E655F94FE4910E2F10E021
:1012100056E0659FC0011124CFEFD0E0BE010E94CF
:101220009C2E5BEA5603C001579F900D11248F0D31
:10123000911D8F0D911D982F990F890F7E01E21A34
:10124000F30AE09ED001E19EB00DF09EB00D112496
:10125000489FA0011124452F55277E01E41AF50A65
:10126000E09EA001E19E500DF09E500D11247E01E4
:10127000E81AF108E29EC001E39E900DF29E900DE7
:101280001124892F9927C81BD90BC09FC001C19F6A
:10129000900DD09F900D11246230710591F048F4AB
:1012A00061157105E1F061307105A9F48B2F752F7F
:1012B00019C06430710561F038F06630710579F05D
:1012C0000AC0892F7B2F0EC08E2F7B2FE52F0AC0DF
:1012D0008E2F792F02C0852F7E2FEB2F03C08B2FEF
:1012E0007E2FE92F6E2FDF91CF911F910F91FF90ED
:1012F000EF9008950895CF93DF93762FE901682F3B
:10130000842F0E94EF08798368838A83DF91CF91CD
:101310000895493C08F048EC0C947B0980918403C3
:10132000282F269530E02115310519F4817082604F
:1013300005C02B32310524F08170846580938403CD
:1013400080918703893C18F088EC80938703089587
:1013500088E090E00C94772FCF92DF92EF92FF928B
:101360006B017C010E948E09B701A60188E090E024
:10137000FF90EF90DF90CF900C94952FE4E8F3E08E
:1013800083E0808311828FEF828388EC83831482D1
:1013900060817181828193810C94AC098091840376
:1013A00080FF02C08695089580E0089580918803AB
:1013B000833018F48F5F8093880360918403709169
:1013C000850380918603909187030C94AC098091EA
:1013D0008803882319F081508093880360918403E7
:1013E0007091850380918603909187030C94AC09DA
:1013F00070E00C945312609107018091840380FF88
:101400000AC08091060123E0829FC0011124875702
:101410009C4F0C94F809809108019091090189175B
:1014200080F7E82FF0E09F01220F331FE20FF31F38
:10143000E757FC4F1182108212828F5FF0CF90919C
:10144000840390FF16C09091080120910901921722
:1014500070F4E92FF0E0DF01AA0FBB1FEA0FFB1FBA
:10146000E757FC4F8183608342839F5FF0CF0C94EA
:10147000FB090895CF93DF9300D01F92CDB7DEB75D
:101480009091840390FF0AC09E012F5F3F4F0E94FE
:1014900089094B8169818A810E941F0A0F900F90F0
:1014A0000F90DF91CF910895CF93DF93EC01EC8102
:1014B000F0E0EB5DFA4F4491E4E8F3E06281818172
:1014C0000E943A0A8C818F5F8C83DF91CF910895BF
:1014D000CF93DF93EC01E4E8F3E0438162818C81F8
:1014E0000E943A0A8C818F5F8C83DF91CF9108959F
:1014F0000F931F93CF93DF9300D01F92CDB7DEB72A
:101500008C018091DB0181110AC09E012F5F3F4F4A
:1015100048EC6FEF0E9489098A818093DB01F80112
:101520008481813051F028F0823061F44091DB01F8
:101530000AC08091DB0140E007C06091DB0140E020
:1015400080E003C040E080E060E00E941F0AF801F4
:10155000848190E0019663E070E00E94B02E848365
:101560000F900F900F90DF91CF911F910F910895E1
:10157000AF92BF92CF92DF92EF92FF920F931F93A1
:10158000CF93DF9300D01F92CDB7DEB7182FF62E82
:10159000042FE22E9091840390FF6DC0E92FE69511
:1015A000AE2FB0E0AE58BE4F8C91809349029E7F23
:1015B000923061F49E012F5F3F4F812F0E94890975
:1015C0004B8169818A810E941F0A43C0823019F4CD
:1015D000009187033EC0863019F41091850339C00D
:1015E0008930D9F38931A9F5E9518E2F8170D82E30
:1015F000E695F0E0EB5DF94FA590B490C12CBB24CB
:1016000060910A01C61618F52C2D30E0A29EC0018B
:10161000A39E900DB29E900D112470E00E949C2E0E
:10162000812FD11002C0860F01C0861B9091080146
:10163000290F311DA901440F551F240F351F2757AE
:101640003C4F402F6F2D0E948909C394D9CF0E942F
:10165000FB0910938503F092860300938703EE2025
:1016600051F060918403709185038091860390917D
:1016700087030E94AC090F900F900F90DF91CF91DC
:101680001F910F91FF90EF90DF90CF90BF90AF90A0
:101690000895E4E8F3E09181282F4381628188E096
:1016A000890F0C94B80A81E00C94490BE4E8F3E04C
:1016B0009181282F4381628188EF890F0C94B80AA9
:1016C00081E00C94560BE4E8F3E0628128E0620FBD
:1016D00008F46FEF282F438181810C94B80A81E0D0
:1016E0000C94630BE4E8F3E0628128E0621B08F4E9
:1016F00060E0282F438181810C94B80A81E00C942A
:10170000720BE4E8F3E0438128E0420F08F44FEF66
:10171000282F628181810C94B80A81E00C94810B9E
:10172000E4E8F3E0438128E0421B08F440E0282F7E
:10173000628181810C94B80A81E00C94900B20E0C6
:101740000C94B80AFF920F931F93CF93DF93EC0191
:10175000F12C0FEF10E060910A01F616F0F4809181
:1017600008012F2D30E0280F311DC901880F991F66
:10177000280F391F27573C4F70E0C8010E94B02E38
:10178000962F8C814091870360918603F99E800D8E
:1017900011240E948909F394DECF0E94FB099A81EB
:1017A0008C8190FF02C08F5F01C081508C83DF91DC
:1017B000CF911F910F91FF900895AF92BF92CF925A
:1017C000DF92EF92FF920F931F93CF93DF93FC0171
:1017D000828180FF02C00FEF01C001E010E044E110
:1017E000A42E80910A01181708F043C080910801C7
:1017F000C12ED12CE601C80FD11DCE01880F991F33
:10180000C80FD91FC757DC4F198218821A8234E0DB
:10181000E32EF12CB12C8091DD018B0D85312CF064
:101820006A2D0E948E2E892F05C087FF03C09091DC
:101830000A01890F082E000C990BC816D90691F4DD
:10184000809187038E9DA0018F9D500D1124559589
:101850004795559547959E01609186038091850334
:101860000E948909B00EF1E0EF1AF108A1F61F5F9E
:10187000B8CF0E94FB098091DD01013031F4811164
:1018800002C080910A01815007C090E001966091EA
:101890000A0170E00E94B02E8093DD01DF91CF91AC
:1018A0001F910F91FF90EF90DF90CF90BF90AF907E
:1018B0000895CF938091080190910901891770F4E0
:1018C000E82FF0E09F01220F331FE20FF31FE757CD
:1018D000FC4F1182108212828F5FF0CFC0E06091C6
:1018E0000A01C617C0F5EC2FF0E070E0CF010E94AE
:1018F000B02E20910801820F2091DC01022E000CF5
:10190000330B90E0E217F307CCF020910501022E93
:10191000000C330B2E173F078CF09C01220F331F56
:10192000820F931F9C0127573C4F40918703609182
:101930008603809185030E9489090BC0FC01EE0F8C
:10194000FF1F8E0F9F1FFC01E757FC4F1182108273
:101950001282CF5FC4CF0E94FB09209104018091C5
:10196000DC01820F8093DC0190910501920F90932E
:10197000050119165CF4082E000C990B40910A0120
:1019800050E041505109841795071CF02195209390
:101990000401CF9108950F931F93CF93DF938C0190
:1019A000FC018481958101968170992795838483B8
:1019B000C0E0D5E580910A01C81700F580910801C3
:1019C0002C2F30E0280F311DC901880F991F280FD7
:1019D000391F27573C4F4C2F4695F801848195813C
:1019E000840F911D817040918703609186038D9FC4
:1019F000802D11240E948909CF5FDCCFDF91CF9128
:101A00001F910F910C94FB090F931F93CF93DF93BA
:101A1000EC0100E010E080910A01282F30E002176D
:101A2000130724F5909108019801290F311DA90190
:101A3000440F551F240F351F27573C4F869590E0C4
:101A40004C81081719071CF4442331F002C04111DE
:101A500003C04091870301C040E0609186038091FC
:101A600085030E9489090F5F1F4FD5CF0E94FB0994
:101A70008C8190E00196817099278C83DF91CF91C2
:101A80001F910F9108958F929F92AF92BF92CF9224
:101A9000DF92EF92FF920F931F93CF93DF93FC019E
:101AA000B280948081E0848300E015E05BE4A52EA1
:101AB00088248394EE24EA94F12C7BE4C72ED12C65
:101AC00080910A01081708F08FC0C02FD0E01C9F3A
:101AD000F0011D9FF00D1124E252FE4F911003C042
:101AE0001382128267C02381222389F1215023832C
:101AF0003481332319F09A2D921B01C0922F8091CB
:101B000087031C9FF0011D9FF00D1124E252FE4F30
:101B1000899FC0011124B6010E949C2E628321116D
:101B200004C0332311F01482A38222E02B1508F4A1
:101B300041C01C9FF0011D9FF00D1124E252FE4F89
:101B400080918503808380918603818333C00E94C6
:101B5000522F8230914074F582E08B1530F40E9450
:101B6000522FB7010E94B02E02C0809185031C9FA6
:101B7000F0011D9FF00D1124E252FE4F808322E000
:101B80002B1558F40E94522F209186032695622F20
:101B900070E00E94B02E820F02C0809186031C9FCD
:101BA000F0011D9FF00D1124E252FE4F818312823D
:101BB000A3828482809108019E01280F311DC901F2
:101BC000880F991F280F391F27573C4F1C9FF00182
:101BD0001D9FF00D1124E252FE4F428161818081F0
:101BE0000E9489090F5F6CCFDF91CF911F910F91F8
:101BF000FF90EF90DF90CF90BF90AF909F908F902D
:101C00000C94FB09E4E8F3E080818E7F808360819F
:101C10007181828193810E94AC0910924A022FEF58
:101C200080E792E0215080409040E1F700C0000042
:101C30000C94FB09E4E8F3E080818E7F80831092AE
:101C40004A022FEF80E792E0215080409040E1F778
:101C500000C000000C94FB0960918403669570E05D
:101C60004BE050E08BE091E00E94622F892B19F449
:101C700081E080934A020E9456229093430280930F
:101C8000420208959091840390FF35C091708111B4
:101C900002C0926006C08B3210F0946502C0880FBB
:101CA000982B90938403662351F060918403709184
:101CB000850380918603909187030E94AC0960910F
:101CC0008403669570E04BE050E08BE091E00E9469
:101CD000622F892B19F010924A0202C00E942C0E2A
:101CE00081E0809345024091870360918603809153
:101CF00085030C949F0B0895682F9091840396950B
:101D000081E0890F8B3208F081E00C94420E81E073
:101D10000C947C0E682F9091840396958FEF890F19
:101D200009F48AE20C94420E81E00C948A0E61E080
:101D30000C94420EE4E8F3E0808181608083869514
:101D40000C94970E8091840380FD0C94020E0C94E9
:101D50009A0E60E00C94420E8091480281112EC0D0
:101D60000E943F20811104C00E94E8200E94BE0909
:101D70000E94A8096093840370938503809386036F
:101D8000909387036E7F61F40E94BE090E94A809A8
:101D900060938403709385038093860390938703F5
:101DA0000E948E0910924A028091840380FF03C032
:101DB00086950E94A90E81E0809348020895E4E888
:101DC000F3E080818160808386950C94A90E109247
:101DD0004A0208950F931F93CF93DF9380914A0295
:101DE000882309F49CC080914902E0918403E69520
:101DF000E81BE0934402823049F4F0E0EF5DFA4FD3
:101E0000E491CE2FD0E004E51AE059C0863049F4C1
:101E1000F0E0E25EFA4FE491CE2FD0E008E61AE05F
:101E20004EC0893051F4E695F0E0E55EFA4FE4915A
:101E3000CE2FD0E002EA1BE042C08F3051F4E6958D
:101E4000F0E0E85EFA4FE491CE2FD0E00DED1BE01C
:101E500036C0853149F4F0E0EB5EFA4FE491CE2FC5
:101E6000D0E009E51CE02BC08831D9F0833239F489
:101E7000E3E1F5E0C591D49108E71AE020C084328F
:101E8000A9F08532C1F48E2F63E00E94822EE92FE3
:101E9000F0E0E05FFA4FE491CE2FD0E003E41DE0E4
:101EA0000EC0C8EED3E00BEC1CE009C0C4EFD1E0DB
:101EB00004E01DE004C0C0EDD7E00AE719E080911E
:101EC0004502882389F0109245020E9456229E0105
:101ED00020953095820F931F909343028093420286
:101EE0001092470210924602809142029091430262
:101EF0000E9462228C179D0790F0E0914202F091BF
:101F00004302CE0FDF1FD0934302C093420282E40C
:101F100092E0F801DF91CF911F910F910994DF9129
:101F2000CF911F910F910895882311F0FA0101C0FC
:101F3000FB010994CF93DF93C82FD62F0E94CE09BF
:101F40008C1740F00E94CE098D1720F4DF91CF91BD
:101F50000C94870E8C2FDF91CF910C94970E0F93DA
:101F60001F93CF93FB01C281CC2309F463C08C0182
:101F70000E94881F8272F801E25CFC45E431F105A1
:101F800008F059C0EA5AFF4F0C94E62E0E94A20EA8
:101F900006C044E95EE067E87EE00E94940FC0E07E
:101FA0004AC047E85EE064E97EE0F7CF40E65BE0E8
:101FB00063E57BE0F2CF43E55BE060E67BE0EDCFFD
:101FC0004EE75BE06FE67BE0E8CF4FE65BE06EE775
:101FD0007BE0E3CF4CE95BE06DE87BE0DECF4DE8F2
:101FE0005BE06CE97BE0D9CF47EE59E066ED79E044
:101FF000D4CF46ED59E067EE79E0CFCF81E017C04E
:1020000065E082E010C068E086E00DC06EE089E027
:102010000AC064E18FE007C067E185E104C088E1A0
:1020200006C062E289E10E949A0FB9CF83E20E9462
:10203000970EB5CFC1E08C2FCF911F910F910895CE
:102040008091C50386958695869508958091C503F0
:1020500081FD07C082608093C5030E9474200C94A8
:10206000B91108958091C50381FF07C08D7F8093CA
:10207000C5030E9474200C94C51108958091C50376
:1020800081FD0C9432100C9426108091C503869526
:10209000817008958091160108950E943F2081115A
:1020A00002C00E94E8200E9470208093C503282F60
:1020B00026952695269530E02430310524F087704A
:1020C00088618093C5038091C50380FF04C0869515
:1020D0008695869501C080E00C948F112091C503F0
:1020E000822F869586958695482F50E0433051057E
:1020F00054F48F5F982F990F990F990F822F877043
:10210000892B8093C5038091C50381608093C503AB
:102110000E9474208091C5038695869586950C94BF
:102120008F118091C503982F969596959695A1F05D
:10213000915E990F990F990F8770892B8093C50332
:10214000887F91E009F490E08091C50390FB80F9CD
:102150008093C5030E9474208091C503869586955F
:1021600086950C948F118091C50380FD13C081600A
:102170008093C503813019F489E08093C503809171
:10218000C5030E9474208091C50386958695869527
:102190000C948F1108958091C50380FF08C08E7F35
:1021A0008093C5030E94742080E00C948F110895E1
:1021B0008091C50380FD0C94CB100C94B3109091CA
:1021C000C503892F8695869586958F5F8F71977049
:1021D000843038F4880F880F880F892B8093C503CB
:1021E00002C09093C5038091C503887F91E009F4F4
:1021F00090E08091C50390FB80F98093C5030E9415
:1022000074208091C5038695869586950C948F11D0
:10221000843008F083E09091C5039770282F220F37
:10222000220F220F922B9093C503987F21E009F48F
:1022300020E09091C50320FB90F99093C5030C9486
:102240008F110E9408118091C5030C947420FC0129
:10225000DB0112968C918823F9F0EB5BFC45E730AB
:10226000F105D8F4E659FF4F0C94E62E83E001C047
:1022700080E00E94211180E008950E949110FBCF20
:102280000E946E10F8CF0E94D810F5CF0E94DF1088
:10229000F2CF0E943E10EFCF81E00895279A2F9849
:1022A00008952F980895CF92DF92EF92FF928C3786
:1022B00024E1920728F469E070E00E949C2E29C076
:1022C000A0E0B0E08A50974DAF4FBF4F6627782F00
:1022D000892F9A2F25EF38E241E050E00E94C42E6A
:1022E00069017A01CA01B9010E94722E9B01AC01F9
:1022F000C701B6010E94722EBB27A92F982F872FE6
:10230000009721E0A207B10511F0BC0102C06FEFF8
:102310007FEFCB01FF90EF90DF90CF900895CF93A8
:10232000C82F843050F4811109C080918000877FCC
:10233000809380000E94511106C0C3E0809180000C
:102340008860809380002C2F30E0AFEFBFEF0E94B9
:10235000EC2E23E030E040E050E00E94C42EC901A2
:102360000E94531190938D0080938C00CF9108951B
:10237000089510924C0210924B0210924D02EFE61B
:10238000F0E08081816080830895EFE6F0E0808155
:102390008E7F80830E9420100C948F111F920F92C9
:1023A0000FB60F9211242F933F934F935F936F9328
:1023B0007F938F939F93AF93BF93CF93EF93FF93AD
:1023C0000E944A1040914B0250914C024F5F5F4F68
:1023D00094EF899F90011124CA01B9010E949C2E9B
:1023E00090934C0280934B02B901660F672F661FD2
:1023F000770B71950E949C2E6F7780914D028230F1
:1024000019F4603451F404C0813039F46F3729F481
:1024100080916F008E7F80936F00E62FF0E0E65D85
:10242000F94FC4910E942010282F41E051E0C49F31
:10243000C001C59F900D112463E070E00E949C2EA6
:10244000269FC001279F900D11240E945311909345
:102450008D0080938C00FF91EF91CF91BF91AF9150
:102460009F918F917F916F915F914F913F912F91AC
:102470000F900FBE0F901F9018950E944E118AE08A
:102480008093800089E1809381008FEF9FEF90938C
:102490008700809386000E944D100E944510811194
:1024A0000C94B9110895239A25B1277F35B138606E
:1024B0004FB7F894FC01CB01880F991F680F791F63
:1024C0006E0F7F1FE617F70789F0819198E035B905
:1024D000000000C087FF25B9880F000000C000C0C1
:1024E00000C025B900C09A9591F7ECCF4FBF8FE59A
:1024F00094E00197F1F700C0000008950F931F9337
:10250000CF93DF93C62FD42F122FFC018281882313
:10251000C9F0609350020E94562290934F0280931C
:102520004E0280E28C0F883008F057C0C77081E0FF
:1025300001C0880FCA95EAF7DF91CF911F910F91E3
:102540000C942C1780915002681330C080914E0279
:1025500090914F020E946222883C910538F500E27A
:102560000D0FCD17B9F080E28C0F883040F4C770A2
:1025700081E001C0880FCA95EAF70E94331708303E
:1025800028F581E09D2F977001C0880F9A95EAF792
:102590000E942C17812F0E9419170830F0F4D77071
:1025A00081E001C0880FDA95EAF70AC080E28C0F5B
:1025B000883098F4C77081E001C0880FCA95EAF7A7
:1025C000DF91CF911F910F910C943317812FDF91E1
:1025D000CF911F910F910C941917DF91CF911F91FB
:1025E0000F9108959C01CB01233F4CE53407F9F08E
:1025F00078F4283DFCE53F07B9F0293D4CE5340768
:1026000011F1273D3C4531F526E241EE61EE1EC059
:10261000253FFCE53F0799F070F0263F3C45D1F49B
:1026200027E245EE66EE12C027E245EE0EC026E236
:1026300041EE60EE0BC027E245EE64EE07C026E2F5
:1026400041EE62EE03C028E241E065EE0E947E1298
:1026500080E00895FC018281882319F010925002D5
:10266000089581E00895CF93DF93EC01FB0182810F
:10267000882309F41FC1C230FCE5DF0708F41BC141
:10268000C6319CE5D90738F09E012A5F3C452930C8
:10269000310508F010C10E9452209093CB03809323
:1026A000CA03C031ECE5DE0709F4C3C008F041C03D
:1026B000C8308CE5D80709F49AC0F0F4C430ECE5D2
:1026C000DE0709F487C068F4C2308CE5D80709F446
:1026D00077C0C330DC4509F0E3C08091CA03826053
:1026E00076C0C630ECE5DE0709F46EC008F07BC0AA
:1026F0008091CA0388606BC0CC308CE5D80709F4A0
:1027000085C068F4CA30ECE5DE0709F474C008F04F
:1027100079C00E94BC198091CA03806858C0CE302D
:102720008CE5D80709F476C008F07FC08091CA0311
:102730008BC0CB3FECE5DE0709F44FC018F5C33181
:102740008CE5D80709F47DC078F4C131ECE5DE07EB
:1027500009F473C0C231DC4509F0A2C00E94BC1963
:102760008091CA038F7733C0C5318CE5D80709F44F
:1027700072C008F486C0CA3FDC4509F091C0809160
:10278000CB033EC0CF3FFCE5DF0709F45FC058F440
:10279000CD3F9CE5D90709F444C008F43FC08091BF
:1027A000CB0382602DC0C130FDE5DF0709F475C0A1
:1027B00008F45DC0C230DD4509F072C080E06EC033
:1027C0008091CA03816003C08091CA0380618093B5
:1027D000CA0366C08091CA0311C08091CB03826096
:1027E0008093CB035DC08091CA038062F0CF80915B
:1027F000CA038064ECCF8091CA0388608460E7CF0D
:102800008160EECF8091CA038E7FE1CF8091CA03B1
:102810008D7FDDCF8091CA03877FD9CF8091CB0395
:1028200018C08091CB038D7FDBCF8091CA038F7E50
:10283000CECF8091CA038F7DCACF8091CA038F7B90
:10284000C6CF8091CA03877F8B7FC1CF8091CB0396
:102850008D7F8E7FC5CF8091CA0382FB222720F90E
:1028600091E0922790FB82F990FB83F9B0CF8091A1
:10287000CB03982F909591708E7F892B90FB81F9D7
:10288000AFCF0E94BC198091CA0387FB222720F991
:1028900091E0922790FB87F99ACF81E00E94EA208D
:1028A0008091CA039091CB030E9463200E94BC19BF
:1028B00080E001C081E0DF91CF910895CF93DF9355
:1028C00086319C4541F5EB010E94881F982F8A8133
:1028D0002091170130911801882379F09A7A81E0CC
:1028E00009F480E080935102911102C069E201C0B5
:1028F00065E3C9010E9485210AC0809151028111BE
:1029000002C069E201C065E3C9010E9490210E94F2
:10291000D61F80E001C081E0DF91CF9108959093B0
:102920005702809356020895E0915602F0915702A3
:10293000309721F00190F081E02D099480E0089516
:10294000E0915602F0915702309799F020912B01B7
:10295000222359F02091CA0327FF07C0DC012C91E4
:1029600011962C93119725E02C930280F381E02D92
:1029700009940895E0915602F0915702309739F08A
:1029800022E0DC012C930480F581E02D0994089568
:1029900020915402309155022817390771F0909315
:1029A000550280935402E0915602F09157023097FD
:1029B00021F00680F781E02D0994089520915202BC
:1029C000309153022817390771F090935302809386
:1029D0005202E0915602F0915702309721F00084A4
:1029E000F185E02D0994089585B7806885BF85B786
:1029F000806885BF089508950C94FB140C94FC1412
:102A00000C94FB140C94FB140E94F4140E94001507
:102A10000C94FE1481E008950C940A150E944D2236
:102A20000E94D5070E94D1220E944D100E94AC0E38
:102A30000C9402157F928F929F92AF92BF92CF9289
:102A4000DF92EF92FF920F931F93CF93DF93CDB757
:102A5000DEB72A970FB6F894DEBF0FBECDBF0E9437
:102A600027080E940C15811111C08FEF89838A837A
:102A70001B820E9456228160782F9D838C8349811E
:102A80005A816B818D810E94CE154FC049E5A42EDD
:102A900042E0B42E00E010E0702E802F0E94C007AC
:102AA0006C01F501819091905F018826992681142F
:102AB000910431F40F5F1F4F0C30110569F7D5CF2A
:102AC00080911D0381FD0E94C90780E0EE24E394FC
:102AD000F12C94012E213F21232B09F18E837F823B
:102AE000CE20DF2081E0CD2809F480E088870E9495
:102AF00056228160782F9A8789874E815F81688509
:102B00008A850E94CE15000F111FF801E75AFD4F6C
:102B100080819181E826F926F182E08206C08F5FEC
:102B2000EE0CFF1C8930A9F6C5CF0E94EA0E0E9468
:102B3000B8110E9463240E9494149091580289173E
:102B4000C9F00E949414809358022A960FB6F89404
:102B5000DEBF0FBECDBFDF91CF911F910F91FF90D0
:102B6000EF90DF90CF90BF90AF909F908F907F902D
:102B70000C9450052A960FB6F894DEBF0FBECDBF59
:102B8000DF91CF911F910F91FF90EF90DF90CF9049
:102B9000BF90AF909F908F907F900895CF93DF93D9
:102BA000CDB7DEB72B970FB6F894DEBF0FBECDBF03
:102BB0004F83588769877A878B87DE01119686E075
:102BC000FD0111928A95E9F785E0FE0137960190A3
:102BD0000D928A95E1F749815A816B817C818D81C3
:102BE0009E810E94751C2B960FB6F894DEBF0FBE17
:102BF000CDBFDF91CF910895FC01808191810E942A
:102C0000491F0895CF93882309F4A9C0C82F82389B
:102C1000C1F40E94941481FDA2C069E38091170160
:102C2000909118010E9485210E94D61F2FEF81EEFE
:102C300094E0215080409040E1F700C0000069E33B
:102C400019C0833801F50E94941480FD88C063E5A3
:102C500080911701909118010E9485210E94D61F32
:102C60002FEF81EE94E0215080409040E1F700C0CA
:102C7000000063E580911701909118010E94902156
:102C8000CF910C94D61F8438C1F40E94941482FD15
:102C900066C067E480911701909118010E94852118
:102CA0000E94D61F2FEF81EE94E02150804090408B
:102CB000E1F700C0000067E4DDCF8CEF8C0F813AB4
:102CC000F8F48C2F0E94E426811149C06C2F80916A
:102CD0001701909118010E940521882349F06C2F5B
:102CE00080911701909118010E9490210E94D61F97
:102CF0006C2F80911701909118010E948521C0CFFF
:102D000080E28C0F883048F4C77081E001C0880FE2
:102D1000CA95EAF70E948B1FB3CFEBE5EC0FE330C7
:102D200040F4F0E0E553FE4F808190E0CF910C94A9
:102D3000C814E8E5EC0FE73150F4F0E0EE0FFF1FA8
:102D4000E356FE4F80819181CF910C94DE14C03FF9
:102D500030F08C2F0E946B23CF910C945824CF918C
:102D60000895882309F464C0823879F40E94941489
:102D700081FF5EC069E380911701909118010E9464
:102D800085210E94D61F69E310C08338B1F40E94E8
:102D9000941480FF4DC063E5809117019091180154
:102DA0000E9485210E94D61F63E5809117019091B2
:102DB00018010E9490210C94D61F843879F40E9447
:102DC000941482FF35C067E4809117019091180137
:102DD0000E9485210E94D61F67E4E7CF9CEF980FE1
:102DE000913A10F4682FE1CF90E2980F983050F4A8
:102DF000877091E001C0990F8A95EAF7892F0E94A8
:102E0000911FD9CF9BE5980F933020F480E090E09C
:102E10000C94C81498E5980F973120F480E090E066
:102E20000C94DE14803F20F00E94D3230C9458248D
:102E30000895CF93C82F0E940216C93349F42FEF8B
:102E400087EE93E0215080409040E1F700C0000001
:102E50008C2FCF910C94B116882321F00E948B1FE8
:102E60000C94D61F0895882321F00E94911F0C9482
:102E7000D61F0895CF92DF92EF92FF920F931F9388
:102E8000CF93DF937C01062FC72FFC01158112958C
:102E90001F70D281D1110E94A81F0E94811F882318
:102EA00099F0DD2389F08C2F807F803421F080E23F
:102EB000800F883048F082E00E9420200E94811F0D
:102EC00091E0D82ED92601C0D12CCC2EC2948FE00F
:102ED000C8228C2D90E0FC01EF58FF4F0C94E62E99
:102EE0008C2F807FCF70882311F0C295C07FDD23A7
:102EF00099F0CC2309F48DC180E2800F883010F066
:102F0000011104C08C2F0E948B1F03C08C2F0E94C4
:102F10009B1F0E94D61F7DC1802F0E94B116CC231B
:102F200009F49CC180E2800F883010F0011104C0C8
:102F30008C2F0E94911F03C08C2F0E94A11F0E9402
:102F4000D61F8CC18C2F807FCF70803211F0C2953C
:102F5000C07F002319F00130C9F022C0DD2371F0D9
:102F6000112341F0113031F40E94BB1F8C2B0E94C1
:102F7000C31F74C10E94BB1F8C2B1DC0112319F0ED
:102F8000113009F46BC10E94CC1F25C0DD2321F054
:102F9000163008F063C10EC0153008F05FC11BC0C9
:102FA000DD2361F0112331F0F701858180FF31C10C
:102FB0008F7085838C2F0E942C1750C1112359F0DC
:102FC000093309F037C1FFEF27EE83E0F1502040CD
:102FD0008040E1F72DC18C2F0E9433173FC18C2F09
:102FE00086958695837019F0813061F037C1DD23B5
:102FF00021F0802F9C2F937002C080E090E00E940F
:10300000C81434C1DD2321F0802F9C2F937002C09F
:1030100080E090E00E94DE1429C1802FDD2319F0AA
:103020000E946B2302C00E94D3230E9458241EC119
:103030008C2F837009F045C0D11114C1402F4295E7
:1030400046954770440F440F602F6F70862F90E0B5
:10305000A0E0B0E0042E04C0880F991FAA1FBB1F78
:103060000A94D2F704FF10C00FE010E020E030E037
:1030700004C0000F111F221F331F4A95D2F700957D
:1030800010952095309503C000E010E09801C6959A
:10309000C695C370BC01CD01602B712B822B932B85
:1030A000C23049F058F4C13019F00E94C61DDAC090
:1030B0000E94B41DD7C00E94D81DD4C00E94B21D6A
:1030C000D1C0DD2319F08C2F817001C08695882333
:1030D00009F4C8C0402F429546954770440F440FED
:1030E000602F6F70862F90E0A0E0B0E0042E04C047
:1030F000880F991FAA1FBB1F0A94D2F704FF10C0A4
:103100000FE010E020E030E004C0000F111F221F8C
:10311000331F4A95D2F7009510952095309503C03E
:1031200000E010E09801C695C695C370BC01CD01C2
:10313000602B712B822B932BC23049F058F4C13095
:1031400019F00E948B1E8EC00E94791E8BC00E94B7
:103150009D1E88C00E94EC1D85C0CF70DD2339F014
:103160008C2F0E94121E802F0E942C177BC0802F54
:103170000E9433178C2F0E94331E74C0023F01F14E
:1031800028F4003F41F0013FA1F03FC0033FF9F0B8
:10319000043F39F13AC0DD2341F0153008F05EC03C
:1031A0008C2F8F710E94581E59C0163008F056C0DF
:1031B000F7CFDD2339F08C2F8F710E94121E4EC085
:1031C000DD23C9F38C2F8F710E94331E47C0DD238E
:1031D00029F08C2F8F710E94FD1D40C00E94F81DA8
:1031E0003DC0DD2349F0CF718C2F0E94121E63E099
:1031F0008C2F0E940B2032C081E00E9420201230D0
:1032000068F182E00E94202029C0DD2331F01123E3
:1032100091F2802F0E94021621C0112399F20933E6
:1032200049F49FEFE7EEF3E09150E040F040E1F722
:1032300000C00000802F0E94B11610C04C2F4F70AC
:10324000602FC7010E94B2050E94231D0FC04C2FA2
:103250004F70602FC7010E94B50508C088EF8C0D24
:10326000843020F40E9494140E945005DD20C9F09F
:103270000E947D1F80FD15C0F70112820E94771FFA
:103280000E94121EC7010E9472190E94771FDF91CF
:10329000CF911F910F91FF90EF90DF90CF900C9402
:1032A000331EDF91CF911F910F91FF90EF90DF9030
:1032B000CF9008950F931F93CF93DF93EC01688114
:1032C00079818A810E94541F8C010E94AF1E0E9446
:1032D000A01DB801CE010E943A17DF91CF911F9136
:1032E0000F910895CF93DF93EC01988189812B8111
:1032F0003C81232B31F08F3F31F481E09F3F19F463
:1033000003C081E001C080E080FD19C0CE010E94B1
:10331000690581110CC00E94811F882381F08A8178
:10332000882369F082E0DF91CF910C942020CE01B8
:103330000E945A19CE01DF91CF910C943205DF9192
:10334000CF9108950E94A81F0E94B81F0E94D61F07
:103350000E9482250E94582480E090E00E94C814B8
:1033600080E090E00C94DE14809117019091180198
:103370000E949B210C94A2190E94981F0C94B419CE
:10338000E92FE295EF704E2F50E0FA013297EE30C0
:10339000F105B0F4EF57FF4F0C94E62E803F91F00B
:1033A00018F4883E68F40EC0843F51F40BC0883E88
:1033B00048F0813F29F406C093FB882780F90895DF
:1033C00080E0089581E008950E94491F0E94C0197D
:1033D0000895CF93DF9300D000D01F92CDB7DEB712
:1033E0000F900F900F900F900F90DF91CF91089555
:1033F000CF93DF9300D000D000D0CDB7DEB72696B4
:103400000FB6F894DEBF0FBECDBFDF91CF91089508
:103410001F93CF93DF93C091720216E080917302E5
:10342000C81799F0D0E01C9FF0011D9FF00D1124EA
:10343000EC58FD4F40815181628173818481958177
:103440000E94F8192196C770E9CFDF91CF911F91A3
:1034500008954091A4025091A5026091A602709136
:10346000A7028091A8029091A9020C94F8190F93D9
:103470001F93CF93DF938091A90282958F7009F0FB
:103480005DC08091A602882309F458C08091720221
:10349000109173026091A4027091A502C091A702DD
:1034A000D091A80291E06F3F09F090E0292F06E04B
:1034B000811709F443C0209721F07F3F21F030E0CD
:1034C00003C031E001C0322F90E030FD34C0089FCE
:1034D000F001099FF00D1124DF01AC58BD4F11968A
:1034E0003C911197371327C03C91361324C0129694
:1034F0003C91129731111FC013964D915C91149716
:103500004C1B5D0B483C5105B0F48091A9028F70B3
:1035100080618093A902E758FD4F80818F708061A0
:10352000808384EA92E00E947219DF91CF911F910B
:103530000F910C94081A01968770BACFDF91CF9142
:103540001F910F9108959F92AF92BF92CF92DF92F9
:10355000EF92FF920F931F93CF93DF93CDB7DEB718
:1035600061970FB6F894DEBF0FBECDBF8C0185E02A
:10357000F801DE011D9601900D928A95E1F7F801A0
:1035800040815181E2809091A4026091A502209136
:10359000A7023091A8022115310531F06F3F31F4B7
:1035A00081E09F3F19F403C081E001C080E0F82F63
:1035B000F1709F2E80FD46C1F801A380B48084EA9B
:1035C000C82E82E0D82EF090A602F501E21BF30B84
:1035D000FF2009F4DFC08091A902E83CF10508F062
:1035E0009BC0282F207F09F052C0561313C04913E7
:1035F00011C0FE2CE1100EC08F7080618093A90273
:103600000E94291AC6010E9472198091A902F8012C
:10361000858358C1AB2831F05F3F31F481E04F3FE3
:1036200019F403C081E001C080E080FD03C081E0A7
:103630008E2502C080E090E0F82FF170FF2E80FF11
:103640001CC0809172022091730236E0821709F447
:1036500017C190E0389FF001399FF00D1124EC580C
:10366000FD4F6181561306C06081461303C062811D
:10367000E61203C001968770E9CFFE2CEE2009F414
:1036800021C18091A90281608093A9025AC056137A
:1036900006C0491304C0E11002C0F8019FC04D8765
:1036A0005E878D859E850E94E419882379F1EE203E
:1036B00069F12091A902822F82958F7090E0029784
:1036C00074F08091A4029091A50298878F83198647
:1036D000BB86AA862C87CE0107960E94721986E0C7
:1036E000F801A4EAB2E001900D928A95E1F70E94F8
:1036F000371A0E94291A0DC0561729F14D875E8787
:103700008D859E850E94E41981112CC0C8010E94FC
:103710007219FF24F394D6C0282F207F69F77A2DE1
:10372000B98AA88A6E2D89890E94E91984EA92E0F3
:103730000E94721986E0F60111928A95E9F70E94BB
:10374000291AF12CBFC04913D9CFE110D7CFF80106
:103750008583C8010E94721986E0F60111928A954C
:10376000E9F7B0C0EE2091F22091A902822F829554
:103770008F7090E002970CF4B2CF8091A4029091E8
:10378000A5029A8389831B82BD82AC822E83CE01DF
:103790000196A3CFE83CF10508F047C0FE2CEE20CF
:1037A00009F4B4CF561330C049132EC02091A9029A
:1037B00020FD21C0822F82958F70482F50E0411547
:1037C0005105C9F0F80125834F30510541F08F5F55
:1037D000982F9295907F822F8F70892B8583C801B7
:1037E0000E94721986E0F801A4EAB2E001900D92FD
:1037F0008A95E1F742C086E0F801A4EAB2E00190C0
:103800000D928A95E1F75EC04D875E878D859E8516
:103810000E94E419811163CF8091A9028160809395
:10382000A902C8010E9472194DC07A2DB98AA88ACE
:103830006E2D89890E94E91986E0F60111928A9518
:10384000E9F71BC0EE2009F461CF4D875E878D85B7
:103850009E850E94E419F82E882309F457CF86E04C
:10386000F801A4EAB2E001900D928A95E1F784EAAA
:1038700092E00E94FC150E94371A0E94291A22C069
:103880004D875E878D859E850E94491F292F229531
:103890002F70223028F49F7039F0811105C00BC0C1
:1038A000243028F49F7049F4805E883020F0C801ED
:1038B0000E9472199F2CF92C05C0F8019581907F08
:1038C00099F7F9CF8F2D61960FB6F894DEBF0FBE32
:1038D000CDBFDF91CF911F910F91FF90EF90DF90BF
:1038E000CF90BF90AF909F9008951F93CF93DF9399
:1038F000CDB7DEB72C970FB6F894DEBF0FBECDBFA5
:103900004F83588769877A878B879C87CE01079674
:103910000E94A31A8823D1F09F8188852A853B8540
:10392000232B31F08F3F31F481E09F3F19F403C026
:1039300081E001C080E080FD47C04F8158856985E6
:103940007A858B859C850E94F8193EC086E0FE0131
:103950003796DE01119601900D928A95E1F7FF816D
:10396000E8856A857B856115710531F0EF3F31F49B
:1039700081E0FF3F19F403C081E001C080E080FDD9
:1039800023C02091730230E0C90101968770992706
:103990004091720250E084179507F1F1F983EA83B0
:1039A0007D836C8396E0929FD001939FB00D11248C
:1039B000AC58BD4FFE01319601900D929A95E1F7FA
:1039C000809373020E94081A16E08091720290910F
:1039D0007302891771F1189FC00111248C589D4FF3
:1039E0000E94A31A882329F1E09172021E9FF00120
:1039F0001124EC58FD4F4081518162817381848193
:103A000095810E94F8198091720290E0019687706A
:103A1000992780937202D9CF0E94BC191092730229
:103A200010927202E4EAF2E086E0DF011D928A95CC
:103A3000E9F72C960FB6F894DEBF0FBECDBFDF912D
:103A4000CF911F910895EF92FF920F931F93CF9301
:103A5000DF938C01892B09F46CC0F12CEE24E394E4
:103A6000E8012196F8018491843740F4843008F00D
:103A700051C0813081F0823019F15BC0853709F483
:103A800044C0A8F19CE7980F903708F052C08F7798
:103A90000E94B11641C00E5F1F4FFE01849190E25B
:103AA000980F983050F48770FE2D01C0FF0F8A9553
:103AB000EAF78F2F0E94AB1F14C00E9402162DC080
:103AC0000E5F1F4FFE01849190E2980F983060F4D2
:103AD0008770FE2D01C0FF0F8A95EAF78F2F0E9495
:103AE000B11F0E94D61F19C00E94B11616C00E5FEA
:103AF0001F4FFE01C491CC2381F08FE99FE0019715
:103B0000F1F700C00000C150F6CF0E5F1F4FFE015D
:103B1000F49003C00E9402168E018F2D882309F4B1
:103B20009FCFEFE9FFE03197F1F700C0000081502F
:103B3000F5CFDF91CF911F910F91FF90EF900895F6
:103B4000089508950C94A11D0C94A21D0E94A41D1B
:103B50006093F4027093F5028093F6029093F7025B
:103B60000C94A2190C94A61D0F931F930091F402BC
:103B70001091F5022091F6023091F702602B712B23
:103B8000822B932B1F910F910C94A61D0F931F93C3
:103B90000091F4021091F5022091F6023091F702A3
:103BA00060237123822393231F910F910C94A61DF0
:103BB0000F931F930091F4021091F5022091F602E9
:103BC0003091F70260277127822793271F910F9169
:103BD0000C94A61D0C94A11D0E94EA1D6093F00296
:103BE0007093F1028093F2029093F3020C94A21965
:103BF00060E070E0CB010C94EC1D0F931F9341E04B
:103C000050E060E070E08A019B0104C0000F111FCA
:103C1000221F331F8A95D2F7C901B8011F910F9156
:103C20000C94EC1D0F931F9341E050E060E070E0B6
:103C300004C0440F551F661F771F8A95D2F78091E5
:103C4000F0029091F102A091F202B091F3028A0188
:103C50009B01082B192B2A2B3B2BC901B8011F9163
:103C60000F910C94EC1D0F931F9341E050E060E026
:103C700070E004C0440F551F661F771F8A95D2F766
:103C800040955095609570958091F0029091F10269
:103C9000A091F202B091F3028A019B01082319233B
:103CA0002A233B23C901B8011F910F910C94EC1DED
:103CB0000F931F9341E050E060E070E004C0440FB8
:103CC000551F661F771F8A95D2F78091F002909159
:103CD000F102A091F202B091F3028A019B01082740
:103CE00019272A273B27C901B8011F910F910C946E
:103CF000EC1D0F931F930091F0021091F10220919F
:103D0000F2023091F302602B712B822B932B1F91C7
:103D10000F910C94EC1D0F931F930091F0021091E2
:103D2000F1022091F2023091F30260237123822389
:103D300093231F910F910C94EC1D0F931F930091EF
:103D4000F0021091F1022091F2023091F30260270B
:103D50007127822793271F910F910C94EC1D0895D2
:103D600029E0929F800D1124E82FE695E695E695CF
:103D7000877051E001C0550F8A95EAF785E0E89F0A
:103D8000F0011124E655FD4F20E030E070E0408165
:103D9000CB01022E02C0969587950A94E2F78170B6
:103DA000819584278523842781932F5F3F4F25307A
:103DB000310569F7089529E0929F800D1124682F3D
:103DC000669566956695982F977085E0689FB00117
:103DD000112440E050E080E0FB01E40FF51FE655C0
:103DE000FD4F208130E0092E02C0369527950A94B8
:103DF000E2F721703327042E01C0220F0A94EAF75C
:103E0000822B4F5F5F4F4530510531F70895BF92C8
:103E1000CF92DF92EF92FF920F931F93CF93DF9396
:103E20008C01C090F002D090F102E090F202F0908C
:103E3000F3028091F4029091F502A091F602B09104
:103E4000F702C82AD92AEA2AFB2ACFE1D0E0D70113
:103E5000C6010C2E04C0B695A795979587950A9430
:103E6000D2F780FD04C0219790F7B12C07C0BC2E7B
:103E7000B8018C2F0E94D1050197A9F38B2DDF91FA
:103E8000CF911F910F91FF90EF90DF90CF90BF9057
:103E90000895CF93DF93EC010E94071FBE010E949B
:103EA000D105DF91CF9108951F93CF93DF93EB015D
:103EB00090917102992321F0CB010E94491F13C0F8
:103EC000882349F0CB010E94071F182F682FCE01CD
:103ED0000E94B01E04C0CB010E94DB1E182FBE0141
:103EE000812F0E94D105DF91CF911F91089580917C
:103EF000F80285958595859508958091F8028770DB
:103F000008959091F802977081E009F480E0089597
:103F100080911C03089590911C03892B80931C03AE
:103F20000895809590911C03892380931C03089524
:103F300010921C03089590911B03892B80931B03FF
:103F40000895809590911B03892380931B03089506
:103F500010921B03089590911A03892B80931A03E2
:103F60000895809590911A03892380931A030895E8
:103F700010921A0308958091F902089508950C94FF
:103F8000BE1F0C94BF1F9091F902981721F08093E7
:103F9000F9020C94C11F08958091F902882329F039
:103FA0001092F90280E00C94C11F0895E09117016E
:103FB000F091180180911C038083E0911701F0912A
:103FC0001801908180911B03892B8083E091170158
:103FD000F0911801908180911A03892B8083809140
:103FE000F902882381F0E0911701F0911801908186
:103FF000892B808380911701909118010E94EF20F6
:1040000081110E94CC1F80911701909118010C948E
:10401000A0140C94BE1F98E0899F90011124262BB8
:104020002093F8020E94121E8091F80285958595D2
:1040300085950C9409201092F80280E00C940920D8
:104040002091F802809582238093F802982F977030
:1040500079F430E0482F082E000C550B2417350753
:1040600039F08595859585950E94331E0C941B200B
:1040700008956FEF7FEF80E090E00C94A12F80E037
:1040800090E00E947D2F21E08C3E9E4F09F020E0C1
:10409000822F089582E090E00C946F2F83E090E0EF
:1040A0000C946F2FCF9384E090E00E946F2FC82F65
:1040B00081E290E00E946F2F2C2F30E0A901582B55
:1040C000CA01CF910895CF93C92F682F84E090E063
:1040D0000E94832F6C2F81E290E0CF910C94832F6C
:1040E00086E090E00C946F2F682F86E090E00C94AF
:1040F000832FAB01BC018FE090E00C94952FAB01B6
:10410000BC0183E190E00C94952F60E070E0CB015E
:104110000C947F2060E070E0CB010E9479200C9429
:1041200085206CEE7EEF80E090E00E94A12F60E0A1
:1041300082E090E00E94832F60E083E090E00E94A4
:10414000832F1092F4021092F5021092F602109250
:10415000F70260E084E090E00E94832F60E081E25B
:1041600090E00E94832F60E085E090E00E94832F22
:1041700060E086E090E00E94832F6FEF87E090E0A0
:104180000E94832F40E050E0BA0188E090E00E9456
:10419000952F60E08DE090E00E94832F40E050E09A
:1041A000BA0188E190E00E94952F60E087E190E0FD
:1041B0000E94832F40E050E0BA018CE190E00E9421
:1041C000952F60E080E290E00E94832F0C948A207B
:1041D0000C949120682F8EE090E00C94832FFC01CA
:1041E000329680912B01882331F08091CA0387FF9A
:1041F00002C09EE101C096E080E0915028F021913C
:104200002223D9F38F5FF9CF0895662351F12091CE
:104210002B012223E9F02091CA0327FF19C0462F62
:104220004695469546954E31E0F4677021E030E0C2
:1042300002C0220F331F6A95E2F7FC01E40FF11D63
:10424000828190E02823392381E0232B69F409C07F
:10425000FC01329608962191621729F0E817F907B8
:10426000D1F780E0089581E008959C01FC01329629
:104270009FEF80E04191461789F09F3F19F441116B
:1042800001C0982F8F5F8630A9F79F3F39F0F90161
:10429000E90FF11D97FDFA956283089508959C0139
:1042A0002A5F3F4FFC014281461301C012820196F2
:1042B00082179307B9F70895262F269526952695F8
:1042C0002E3168F4FC01E20FF11D677021E030E04F
:1042D00001C0220F6A95EAF78281282B2283089574
:1042E000262F2695269526952E3170F4FC01E20F97
:1042F000F11D677021E030E001C0220F6A95EAF7F6
:104300002095828128232283089520912B01222346
:1043100029F02091CA0327FD0C945C210C943521CF
:1043200020912B01222329F02091CA0327FD0C9410
:1043300070210C944F2120912B01FC0132962223F5
:1043400031F08091CA0387FF02C08EE101C086E090
:10435000DF011D928A95E9F7089508950C94AD2127
:104360000C94AD21CF930E94B0210E9427080E9497
:10437000AE21C0E08C2F0E94C007892B29F4CF5FAB
:10438000CC30C1F780E001C081E0CF9108950C945A
:10439000AD210C94C7210E94C9218091D0038430A3
:1043A00009F43CC010921E0320E488E190E00FB6AF
:1043B000F894A895809360000FBE2093600080E081
:1043C0000E948F1180E00E9450050E94E70E8091AC
:1043D0001F0381110AC081E080931F038091840331
:1043E0008170809320030E941A0E0E94C92183B716
:1043F000817F846083BF83B7816083BF7894889511
:1044000083B78E7F83BF0FB6F894A8958091600024
:10441000886180936000109260000FBE08950C9434
:10442000AD210E94BC190E944D100E9494140E945C
:10443000500510921F038091200381110E94DF0E0E
:104440000E942C0E0C940F221F920F920FB60F9207
:1044500011248F939F93AF93BF9380911E0381117B
:1044600013C08091C6039091C703A091C803B09177
:10447000C9034196A11DB11D8093C6039093C70344
:10448000A093C803B093C903BF91AF919F918F913F
:104490000F900FBE0F901F90189582E084BD93E09F
:1044A00095BD9AEF97BD80936E0008952FB7F8944D
:1044B0008091C6039091C703A091C803B091C9032E
:1044C0002FBF08959C014FB7F8948091C603909137
:1044D000C703A091C803B091C9034FBF821B930BC0
:1044E000089578941F920F920FB60F9211248F9314
:1044F0009F93AF93BF938091C6039091C703A09100
:10450000C803B091C9030196A11DB11D8093C603D4
:104510009093C703A093C803B093C903BF91AF9111
:104520009F918F910F900FBE0F901F90189581E073
:104530008093E00080E28093D8001092C9008FE160
:104540009EE40197F1F700C0000087E090EBDC01EA
:104550008093D9039093DA03A093DB03B093DC0339
:104560009CE088E10FB6F894A895809360000FBE98
:1045700090936000FFCF0C9439200E9427088FE3AE
:104580009CE90197F1F700C000000E94270880E035
:104590000E94C00780FF04C00E94BB220C94972297
:1045A00008950E943F20811102C00E94E8200E94CD
:1045B0004A2080931D030E9452209093CB03809346
:1045C000CA030E944E20682F70E080E090E00C94B7
:1045D000B21D8091280380FF0BC060911E0185E011
:1045E000689FB001112475956795759567952BC0E7
:1045F00081FF09C060911E0185E0689FB001112410
:104600007595679520C082FF07C060911E0185E007
:10461000689FB001112417C0909127039923D1F00E
:1046200060911D01961788F720911E0185E0289F53
:1046300090011124929FA001939F500D112470E0CE
:10464000CA010E94B02E6038710540F461157105F1
:1046500019F406C065E070E0862F08958FE708958D
:1046600081E008958091280380FF08C060911A01BD
:1046700070E0759567957595679521C081FF06C0B7
:1046800060911A0170E07595679519C082FF04C0AA
:1046900060911A0170E010C090912703992399F05E
:1046A000609119019617A0F780911A01899FC001A6
:1046B000112470E00E94B02E6038710540F461153D
:1046C000710519F406C061E070E0862F08958FE748
:1046D000089581E00895803F21F40E94E9228195A8
:1046E00004C0813F29F40E94E92280932C0308959D
:1046F000823F21F40E94E922819504C0833F29F47E
:104700000E94E92280932B030895893F19F40E94A7
:10471000322305C08A3F31F40E9432238195809371
:104720002D0308958B3F21F40E943223819504C00C
:104730008C3F29F40E94322380932E030895843FF6
:1047400021F480912A03816017C0853F21F4809174
:104750002A03826011C0863F21F480912A0384607D
:104760000BC0873F21F480912A03886005C0883FF1
:1047700031F480912A03806180932A0308958D3F4C
:1047800021F48091280381600BC08E3F21F4809139
:104790002803826005C08F3F29F48091280384603C
:1047A000809328030895803F39F480912C0387FF7C
:1047B0006CC010922C0369C0813F29F480912C03B6
:1047C0001816BCF362C090912B03823F29F497FF27
:1047D0005CC010922B0359C0833F19F41916CCF317
:1047E00054C0893F41F480912D0318160CF04DC040
:1047F00010922D034AC08A3F29F480912D0387FF30
:1048000044C0F6CF8B3F39F480912E0387FF3DC023
:1048100010922E033AC08C3F29F480912E03181673
:10482000BCF333C0843F21F480912A038E7F17C0EC
:10483000853F21F480912A038D7F11C0863F21F4AA
:1048400080912A038B7F0BC0873F21F480912A033C
:10485000877F05C0883F31F480912A038F7E809343
:104860002A0313C08D3F21F4809128038E7F0BC053
:104870008E3F21F4809128038D7F05C08F3F29F45E
:10488000809128038B7F8093280380912B038111D3
:104890000EC080912C0381110AC080912D038111DB
:1048A00006C080912E03811102C010922703089543
:1048B00089E293E00E94BA140E9456229093260344
:1048C000809325030895CF93DF9300D000D000D0CC
:1048D000CDB7DEB786E0E9E2F3E0DE0111960190A4
:1048E0000D928A95E1F780912B03811105C080918B
:1048F0002C03882309F47AC0809123039091240328
:104900000E946222AC0190912703992339F02091F3
:104910001F0130E02417350758F068C020912001AE
:104920008AE0289F900111242417350718F05EC0F3
:104930009F3F19F09F5F9093270310922D031092D1
:104940002E0380912B03181624F40E94E9228093F1
:104950002B0380912B0387FF05C00E94E9228195DC
:1049600080932B0380912C03181624F40E94E922D3
:1049700080932C0380912C0387FF05C00E94E922BD
:10498000819580932C0330912B033323E1F0209108
:104990002C032223C1F045EB3403C00111249923D9
:1049A00019F090932B0303C081E080932B0335EB28
:1049B0002303C0011124992319F090932C0303C001
:1049C00081E080932C030E945824809125039091CC
:1049D0002603909324038093230386E0FE013196FF
:1049E000A9E2B3E001900D928A95E1F780912D0341
:1049F000811105C080912E03882309F47AC080912B
:104A00002103909122030E946222AC01909127031E
:104A1000992339F020911B0130E02417350758F015
:104A200068C020911C018AE0289F9001112424175E
:104A3000350718F05EC09F3F19F09F5F90932703E2
:104A400010922B0310922C0380912D03181624F43E
:104A50000E94322380932D0380912D0387FF05C090
:104A60000E943223819580932D0380912E03181686
:104A700024F40E94322380932E0380912E0387FF1B
:104A800005C00E943223819580932E0330912D031F
:104A90003323E1F020912E032223C1F045EB3403B0
:104AA000C0011124992319F090932D0303C081E0D4
:104AB00080932D0335EB2303C0011124992319F0B2
:104AC00090932E0303C081E080932E030E9458240C
:104AD00080912503909126039093220380932103D4
:104AE00086E0FE013196A9E2B3E001900D928A952D
:104AF000E1F726960FB6F894DEBF0FBECDBFDF916B
:104B0000CF910895E9E2F3E086E0DF011D928A95F6
:104B1000E9F710922703109228030895833081F15A
:104B200028F4813059F08230D1F00895853009F4AD
:104B300049C0B8F1863009F456C00895809120012B
:104B4000262F30E0280F311D2F3F310524F4680F48
:104B50006093200108958FEF809320010895809144
:104B60001F01262F30E0280F311D2F3F310524F47F
:104B7000680F60931F0108958FEF80931F010895C0
:104B800080911E01262F30E0280F311D2F3F310567
:104B900024F4680F60931E0108958FEF80931E0127
:104BA000089580911D01262F30E0280F311D2F3FE1
:104BB000310524F4680F60931D0108958FEF8093F1
:104BC0001D01089580911A01262F30E0280F311D14
:104BD0002F3F310524F4680F60931A0108958FEF79
:104BE00080931A01089580911901262F30E0280F33
:104BF000311D2F3F310524F4680F6093190108958A
:104C00008FEF809319010895833011F128F48130DA
:104C100049F0823091F00895853081F120F186309D
:104C2000C1F1089580912001681720F4861B8093BC
:104C30002001089510922001089580911F016817A6
:104C400020F4861B80931F01089510921F01089580
:104C500080911E01681720F4861B80931E01089521
:104C600010921E01089580911D01681720F4861B83
:104C700080931D01089510921D01089580911A01DD
:104C8000681720F4861B80931A01089510921A0168
:104C9000089580911901681720F4861B80931901EB
:104CA00008951092190108950F931F9341E050E069
:104CB00060E070E08A019B0104C0000F111F221FF9
:104CC000331F8A95D2F7C901B8010E94B21D1F9106
:104CD0000F910C94BC19482F50E0FA013597EF332F
:104CE000F10508F060C0E157FF4F0C94E62E0E94DA
:104CF000E82055C080911D03817F8E7F80931D0326
:104D000081E08093300308950E945A0548C0809145
:104D10001D03982F9095917090FB80F980931D034F
:104D200091113DC0897F877F10C080911D0381FB59
:104D3000222720F991E0922790FB81F980931D03AF
:104D4000992369F180911D03816080931D0327C021
:104D500080911D0382FB222720F991E0922790FB8E
:104D600082F9ECCF80911D0383FB222720F991E08B
:104D7000922790FB83F9E2CF0E94BC198091CA036D
:104D800087FB222720F991E0922790FB87F98093F7
:104D9000CA0305C0895301C08D510E94542681E089
:104DA000089580E0FACF80E0089580E008950C94A3
:104DB000D5268E518A3030F4E82FF0E0E253FE4FD2
:104DC0008081089580E00895CF93C82F80913003AB
:104DD000813051F018F0823099F17DC00E94881F17
:104DE000823209F07AC004C00E94881F823261F4C6
:104DF0008C2F0E94D726811104C08C2F0E946B2615
:104E00001DC081E090E01AC08C2F0E94D526811130
:104E100014C0C43179F048F4CB3079F0C03109F0D6
:104E200060C082E08093300308C0C93219F0C833F3
:104E300021F057C01092300354C081E0817053C0FC
:104E4000C93289F118F5C43171F1B0F4C73009F0F5
:104E500046C08EE18093200182E380931F018AE0A7
:104E600080931E0184E180931D0188E080931A01E4
:104E700088E28093190133C082EE8C0F863078F57A
:104E80008C2F0E94D92680932F0329C0CE34E9F0BD
:104E900020F4CB3421F56AE013C0C13579F0C23576
:104EA000F1F461E00DC080912F03882319F0109276
:104EB0002F0315C081E08093300315C061E006C068
:104EC00080912F030E948E250AC06AE080912F03F3
:104ED0000E94042604C01092300380E004C081E0E8
:104EE00002C080E0ABCFCF91089580915103089527
:104EF000CF93DF9300D01F92CDB7DEB79091D00350
:104F0000943019F589837B836A8382E08093E9007A
:104F10008FEF9091E800815095FD06C095ED9A9530
:104F2000F1F700008111F5CF8091E80085FF0DC0F9
:104F300040E050E063E070E0CE0101960E94D42989
:104F40008091E8008E778093E8000F900F900F908B
:104F5000DF91CF910895CF93DF93EC010E94B729A1
:104F6000823011F0843031F4BE0184E0DF91CF91C2
:104F70000C947827DF91CF910895BC0183E00C94C5
:104F80007827CF93DF93EC010E94B729823011F08C
:104F90008430F9F482E08093E9008FEF9091E8008B
:104FA000815095FD06C095ED9A95F1F700008111AD
:104FB000F5CF8091E80085FF0CC040E050E066E04E
:104FC00070E0CE010E94D4298091E8008E77809312
:104FD000E800DF91CF910895CF93DF93EC010E9419
:104FE000B729823011F08430D9F580912B018823C4
:104FF00039F08091CA0387FF03C060E282E002C0FB
:1050000068E081E08093E9008FEF9091E8008150A3
:1050100095FD06C095ED9A95F1F700008111F5CF49
:105020008091E80085FF1CC080912B01811105C093
:1050300040E050E068E070E003C070E040E050E025
:10504000CE010E94D4298091E8008E778093E800F9
:1050500080E2FE01A1E3B3E001900D928A95E1F7B1
:10506000DF91CF9108958091CF03811109C00E94F3
:10507000652B0E94C22B8091E20084608093E20045
:1050800008951092CF030895089508950C94112265
:1050900042E061EC81E00E94DE2A42E261EC82E0C3
:1050A0000C94DE2A8091D203833009F460C030F47E
:1050B000813071F0823009F499C008958A3009F482
:1050C00085C08B3009F46BC0893009F0A7C020C0BF
:1050D0008091D103813A09F0A1C08091E800877FD7
:1050E0008093E8008091D5039091D603892B21F419
:1050F00060E281E393E003C060E080E090E070E074
:105100000E941F2A8091E8008B778093E800089521
:105110008091D103813209F081C08091D5039091B3
:10512000D603029708F07AC08091E800877F8093C9
:10513000E8008091E80082FD05C08091D0038111D4
:10514000F8CF6CC02091F3008091F20090E0922B98
:10515000029729F48091F1008B7F813021F48091B6
:10516000F100809351038091E8008B7753C08091C8
:10517000D103813A09F052C08091D5039091D603B2
:10518000892B09F04BC08091E800877F8093E8006D
:105190008091E80080FFFCCF80912B0136C0809188
:1051A000D1038132D9F58091D5039091D603892B13
:1051B000A9F58091E800877F8093E8000E94132B77
:1051C0008091D30380932B010C94BC198091D1035F
:1051D000813221F58091E800877F8093E8000E946A
:1051E000132B8091D4038093520308958091D103AF
:1051F000813AA1F48091E800877F8093E800809154
:10520000E80080FFFCCF809152038093F1008091F1
:10521000E8008E778093E8000C94132B089584B7F0
:10522000877F84BF0FB6F894A8958091600088614D
:1052300080936000109260000FBE90E080E80FB68F
:10524000F89480936100909361000FBE0E94041552
:105250000E94652B0E94C22B8091E20084608093A3
:10526000E20078940E94572E0E940E1581E291E090
:105270000E948F148091D003853069F40E94CB2165
:105280008091CE038823B1F30E94B221882391F349
:105290000E94BE29EFCF0E941A15ECCF0C94502922
:1052A000292F332723303105C9F060F4213031052F
:1052B00081F02230310509F04AC08BE390E02EEDF9
:1052C00037E049C02132310511F12232310579F13F
:1052D0003EC082E190E029E138E03DC0992781306D
:1052E000910561F040F08230910559F0039779F50E
:1052F000EAEAF7E008C0EAEDF7E005C0E8ECF7E01D
:1053000002C0E0EBF7E0849190E09F0124C06115BA
:10531000710541F061307105D1F489E090E029E038
:1053200038E019C089E090E020EF37E014C0611543
:10533000710541F06130710551F48CEB90E02BE286
:1053400038E009C080E490E027EE38E004C080E057
:1053500090E020E030E0FA013183208308958091CD
:10536000D003843011F081E0089582E008958091A7
:105370005303811102C00C94AF29089580E189BDC7
:1053800082E189BD09B400FEFDCF8091D8008F7DF8
:105390008093D8008091E00082608093E00080914B
:1053A000E00081FDFCCF0895CF92DF92EF92FF9253
:1053B0000F931F93CF93DF93EC018B017A010E942F
:1053C000322B811133C0E114F10439F0F7018081EF
:1053D0009181081B190BC80FD91FC12CD12C0115A5
:1053E000110519F18091E80085FD16C08091E80053
:1053F0008E778093E800E114F10449F0F701808191
:105400009181C80ED91ED182C08285E00FC00E9452
:10541000322B882321F30AC089918093F100015037
:105420001109FFEFCF1ADF0ADACF80E0DF91CF91C9
:105430001F910F91FF90EF90DF90CF9008952091F2
:10544000D7033091D8032617370748F06115710547
:1054500039F42091E8002E772093E80001C0B901CB
:10546000FC0120E06115710579F18091D00388235A
:10547000F1F18530F1F18091E80083FD3CC080912D
:10548000E80082FD2EC08091E80080FFEBCF2091E4
:10549000F3008091F20090E0922B6115710551F0BC
:1054A0008830910538F421912093F1006150710901
:1054B0000196F3CF21E0089709F020E08091E80001
:1054C0008E778093E800CECF2111CFCF0AC0809194
:1054D000D003882361F0853061F08091E80083FD7E
:1054E0000AC08091E80082FFF2CF80E0089582E058
:1054F000089583E0089581E008952091D7033091C5
:10550000D8032617370748F06115710539F4209143
:10551000E8002E772093E80001C0B901FC0120E0EB
:105520006115710591F18091D003882309F440C081
:10553000853009F43FC08091E80083FD3DC0809133
:10554000E80082FD2FC08091E80080FFE9CF209124
:10555000F3008091F20090E0922B6115710559F0F3
:105560008830910540F424912093F10031966150E8
:1055700071090196F2CF21E0089709F020E08091AF
:10558000E8008E778093E800CBCF2111CCCF0AC002
:105590008091D003882361F0853061F08091E8002C
:1055A00083FD0AC08091E80082FFF2CF80E0089579
:1055B00082E0089583E0089581E00895982F973060
:1055C00068F59093E900981739F07091EC002091FC
:1055D000ED005091F00003C0242F762F50E021FD04
:1055E00002C09F5FECCF3091EB003E7F3093EB0029
:1055F0003091ED003D7F3093ED003091EB00316054
:105600003093EB007093EC002093ED005093F0008A
:105610002091EE0027FDE5CF80E008958F70809304
:10562000E90081E008958091D10387FF11C0809146
:10563000E80082FD05C08091D0038111F8CF11C030
:105640008091E8008B770BC08091D003882349F0CC
:105650008091E80080FFF8CF8091E8008E778093FA
:10566000E80008952091E4003091E50095E640912E
:10567000EC00842F817040FF23C08091E80080FD02
:105680001DC08091D003882399F0853099F08091D6
:10569000EB0085FD11C04091E4005091E500241716
:1056A000350729F3915011F09A01E1CF84E0089574
:1056B00082E0089583E0089581E0089580E00895F0
:1056C0004091E80042FFDDCF08950E94D32B0E9455
:1056D000DB2BE0EEF0E0808181608083E8EDF0E09C
:1056E00080818F77808319BCA7EDB0E08C918E7F8D
:1056F0008C9380818F7E80831092CF0308950F93C7
:105700001F93CF93DF930E94D32B0E94DB2BC8ED16
:10571000D0E088818F7788838881806888838881BA
:105720008F7D888319BC1092D0031092CC03109205
:10573000CE031092CD0300EE10E0F80180818B7F44
:10574000808388818160888342E060E080E00E94FD
:10575000DE2AE1EEF0E080818E7F8083E2EEF0E0F1
:10576000808181608083808188608083F80180816E
:105770008E7F8083888180618883DF91CF911F91A4
:105780000F910895E8EDF0E080818F7E8083E7ED52
:10579000F0E080818160808384E082BF81E080933B
:1057A000CF030C947F2BE8EDF0E080818E7F808327
:1057B0001092E20008951092DA001092E10008952C
:1057C0001F920F920FB60F9211242F933F934F9376
:1057D0005F936F937F938F939F93AF93BF93EF9359
:1057E000FF938091E10082FF0BC08091E20082FF75
:1057F00007C08091E1008B7F8093E1000E94562ECC
:105800008091DA0080FF1FC08091D80080FF1BC00C
:105810008091DA008E7F8093DA008091D90080FF3A
:105820000DC080E189BD82E189BD09B400FEFDCFD4
:1058300081E08093D0030E94332805C019BC1092E8
:10584000D0030E9441288091E10080FF19C080911F
:10585000E20080FF15C08091E2008E7F8093E2001D
:105860008091E20080618093E2008091D8008062A4
:105870008093D80019BC85E08093D0030E9445280E
:105880008091E10084FF30C08091E20084FF2CC051
:1058900080E189BD82E189BD09B400FEFDCF809120
:1058A000D8008F7D8093D8008091E1008F7E809317
:1058B000E1008091E2008F7E8093E2008091E2001F
:1058C00081608093E2008091CC03882311F084E012
:1058D00007C08091E30087FD02C081E001C083E042
:1058E0008093D0030E9446288091E10083FF29C065
:1058F0008091E20083FF25C08091E100877F809343
:10590000E10082E08093D0031092CC038091E1000B
:105910008E7F8093E1008091E2008E7F8093E20091
:105920008091E20080618093E20042E060E080E0EC
:105930000E94DE2A8091F00088608093F0000E942F
:105940004428FF91EF91BF91AF919F918F917F91EB
:105950006F915F914F913F912F910F900FBE0F90DC
:105960001F9018951F920F920FB60F9211242F932C
:105970003F934F935F936F937F938F939F93AF93D7
:10598000BF93CF93DF93EF93FF93C091E900CF7064
:105990008091EC00D82FD17080FDD0E81092E90002
:1059A0008091F000877F8093F00078940E94F62C1D
:1059B0001092E9008091F00088608093F000CD2B78
:1059C000CF70C093E900FF91EF91DF91CF91BF912C
:1059D000AF919F918F917F916F915F914F913F9187
:1059E0002F910F900FBE0F901F9018951F93CF937C
:1059F000DF93CDB7DEB7AA970FB6F894DEBF0FBE20
:105A0000CDBFE1EDF3E08091F100819323E0E93D2A
:105A1000F207C9F70E9452288091E80083FF2EC147
:105A20008091D1039091D203492F50E04A30510523
:105A300008F024C1FA01E253FF4F0C94E62E80389F
:105A400021F0823809F01AC108C08091CD039091ED
:105A5000CE03992389F082600FC08091D5038F70A7
:105A6000873008F00BC18093E9008091EB0085FB43
:105A7000882780F91092E9009091E800977F909331
:105A8000E8008093F1001092F100D1C0282F2D7F03
:105A900009F0F4C0882319F0823061F0EFC08091E2
:105AA000D303813009F0EAC0933009F080E080939D
:105AB000CE032EC08091D30381112AC08091D503DB
:105AC0008F702FEF280F263008F0D8C08093E900A0
:105AD0002091EB0020FF1CC0933021F48091EB005B
